:06070A00C2A58F80D2A7FA
:080710007F027EEFDEFEDFFC3C
:0107180022BE
:0A073E00C2A612070AC2A7020710A4
:10061300CFCDCFCECCCE1203317C007D0A12033175
:04062300ED2430FF93
:0A062700D2A612070AC2A7020710AC
:1006E4007F3812073E7F0C12073E7F0612073E7FBB
:0406F4000102073EBA
:1006B900AE07BE0104ED148006BE0209ED243F44D5
:0606C90080FF12073E2233
:0A074800AC031206B9AF0402062745
:0605CE008B108A11891256
:1005D4001206B9E4FDAB10AA11A9128D827583002D
:0C05E4001202F2FF60061206270D80E9EB
:0105F00022E8
:0405F100AB05A907A6
:1005F5007D017C00E4FAEAC39B500EE9FF7E001200
:0D060500031FAC06AD070A80EDAE04AF0583
:0106120022C5
:04057C008A128B1341
:100580001206B9E4F515E515C395145017E51414D2
:10059000C39515FD7F0A1205F1AC12AD13120613B7
:0405A000051580E2DB
:0105A4002234
:10050B001206B9C3EA64809480400B7F2B12062736
:10051B008A0E8B0F800E7F2D120627C3E49BF50FDF
:10052B00E49AF50EE4F50DE50DC3950C5017E50CAB
:10053B0014C3950DFD7F0A1205F1AC0EAD0F12061B
:05054B0013050D80E224
:010550002288
:05076C0054656D7000F2
:100462001206E41207717BFF7A07796C7D017F0126
:100472001205CE1207191205518F198E188D178C7D
:1004820016E4FFFEFDFCAB19AA18A917A816120163
:10049200A9501E7B2D7D017F02120748AF19AE18AD
:1004A200AD17AC161202228F198E188D178C16807A
:1004B200097B2B7D017F02120748AF19AE18AD17D9
:1004C200AC16120271AB07AA067514037D027F02F5
:1004D20012057C7B2E7D057F021207487F007E403D
:1004E2007D1C7C46AB19AA18A917A8161200031284
:1004F2000271E47B107A27F9F81203C27514047DA5
:09050200067F0212057C0204755B
:0307710002066C11
:0D0719001207717FCC1206887F440206880B
:100551001207717FCC1206887FBE12068812064FE1
:100561008F1012064FEFFEE510FFFDAC06EC1202F4
:0B05710038E4FBFA7980784102010CAD
:10066C00D2B7C2B77FF0DFFED2B77F1EDFFEA2B7D4
:0B067C00E433FE7FFADFFED2B7AF06CA
:010687002250
:1006F800C2B77E05DEFEEF24FF92B77E1DDEFED276
:01070800B739
:0107090022CD
:1006A100C2B77F02DFFED2B77F02DFFEA2B7E4331B
:0706B100FE7F1BDFFEAF0618
:0106B800221F
:02068800AD07BC
:10068A00E4FCA8047401088002C333D8FC5DFF129D
:06069A0006F80CBC08ECA0
:0106A0002237
:10064F00E4FDFC1206A1EF600DA8047401088002FE
:0C065F00C333D8FC42050CBC08E9AF0511
:01066B00226C
:1006CF00EF1FAC0670011E4C600A7D027CEFDCFE52
:0406DF00DDFC80ECD2
:0106E30022F4
:09075C00D2A0D2A1C2A0C2A122C8
:0205A500AD07A0
:1005A700E4FB7E007480A803088006CEA2E713CE82
:1005B70013D8F8FFEDF582EF558224FF92A0D2A160
:0605C700C2A10BBB08DC21
:0105CD00220B
:10063100E4FFD2A0FED2A130A00DA80674800880EC
:0D06410002C313D8FC4207C2A10EBE08E898
:01064E002289
:0B072600D2A0D2A1A2A0E433FFC2A128
:0107310022A5
:0A075200EF24FF92A0D2A1C2A12261
:07076500C2A0D2A1D2A02224
:10000300EC4D6011E8497017ED33EC3304600DE4F7
:10001300FCFFFEFD22E933E8330470F80202DD122F
:1000230002A858046009E4CC248150062850090230
:1000330002E72840030202E4C0E0EB4A7044B980BF
:1000430006D0E0FB0202D3EF4E701CBD8008EBFF2D
:10005300EAFEE9FD80EBE98DF0A4FEE5F00200EC99
:10006300E9CDF9EAFEEBFFEF89F0A4FCE5F0CE89D8
:10007300F0A42EFFE435F0CD89F0A42DFEE435F095
:100083008067EF4E7005BD80D780C3EF8BF0A4ACC3
:10009300F0EE8BF0A42CFCE435F0F8EF8AF0A42CFE
:1000A300E5F038FCE433CB8DF0A42CFCE5F03BF811
:1000B300EE8AF0A42CFCE5F038F8E433CF89F0A401
:1000C3002CFCE5F038CF3400CE89F0A42FFFE5F007
:1000D3003EFEE433C98DF0A42EFEE5F039CD8AF05F
:1000E300A42FFFE5F03EFEE43DFD33D0E0FB5007D7
:1000F3000BBB000F0202E7EC2CFCEF33FFEE33FEE9
:06010300ED33FD0202BF16
:100109000202E7EC5D046005E8590470030202DDB0
:100119001202A8580460F6EC4860F2EC7004FDFE87
:10012900FF22C860DB2481C85009C39860025006C9
:100139000202E49850CAF582E9294B4A7005AB825C
:100149000202D375F0007C1A7880C3EF9BEE9AED1A
:1001590099400DC3EF9BFFEE9AFEED99FDE842F041
:10016900DC23ACF0D0E0FFD0E0FED0E0FDAB822094
:10017900E7101BEB60BAEC2CFCEF33FFEE33FEED1E
:1001890033FD0202BFE803F830E705C0F075F0005F
:10019900EF2FFFEE33FEED33FD40B830E7C280AA02
:1001A90074F8CC6480CCC86480C8F58204604FC3FD
:1001B900EB9FF5F0EA9E42F0E99D42F0E89C45F09C
:1001C900603C501DE5825FFFE582D313CB5BCBF426
:1001D9002B5582FB50280ABA002409B9002008804F
:1001E9001DE5825BFBE582D313CF5FCFF4C3132FE9
:1001F9005582FF50090EBE00050DBD00010CC3EB71
:100209009FF5F0EA9E42F0E99D42F0E89C45F060D6
:0902190007CC4820E701B3EC22F8
:10022200ED33EC33600A047003BD8004ECB2E7FCEA
:0102320022A9
:1002330075F020800E75F010800575F0087D007E46
:10024300007F003392D530D503120454EC334010B1
:10025300EF33FFEE33FEED33FDEC33FCD5F0ED224F
:0E026300E5F0247EA2D513CC92E7CDCEFF228B
:10027100EDD2E7CD33EC3392D524814006E4FFFE85
:10028100FDFC22FCE4CFCECDCC24E0501174FF80E4
:10029100EDC3CC13CCCD13CDCE13CECF13CF047081
:0702A100F030D5DE02045429
:1002A800E9D2E7C933E833F892D5EDD2E7CD33EC9C
:0702B80033FC5002B2D52215
:1002BF00EC30E7100FBF000C0EBE00080DBD0004A0
:1002CF000BEB6014A2D5EB13FCED92E7FD2274FF4C
:1002DF00FCFDFEFF22E480F8A2D574FF13FC7D80A5
:0302EF00E480EFB9
:03000000020732C2
:0C073200787FE4F6D8FD7581190204629E
:1002F200BB010CE58229F582E5833AF583E02250C1
:1003020006E92582F8E622BBFE06E92582F8E2220A
:0D031200E58229F582E5833AF583E4932224
:10031F00EF8DF0A4A8F0CF8CF0A428CE8DF0A42EF2
:02032F00FE22AC
:10033100BC000BBE0029EF8DF084FFADF022E4CCB0
:10034100F875F008EF2FFFEE33FEEC33FCEE9DEC79
:10035100984005FCEE9DFE0FD5F0E9E4CEFD22EDBF
:10036100F8F5F0EE8420D21CFEADF075F008EF2F09
:10037100FFED33FD4007985006D5F0F222C398FDFA
:050381000FD5F0EA2297
:1003860075F008758200EF2FFFEE33FECD33CDCC2E
:1003960033CCC58233C5829BED9AEC99E5829840B1
:1003A6000CF582EE9BFEED9AFDEC99FC0FD5F0D68E
:1003B600E4CEFBE4CDFAE4CCF9A88222B800C1B9B8
:1003C6000059BA002DEC8BF084CFCECDFCE5F0CBF6
:1003D600F97818EF2FFFEE33FEED33FDEC33FCEB2F
:1003E60033FB10D703994004EB99FB0FD8E5E4F9EA
:1003F600FA227818EF2FFFEE33FEED33FDEC33FCD7
:10040600C933C910D7059BE99A4007EC9BFCE99ACA
:10041600F90FD8E0E4C9FAE4CCFB2275F010EF2F0F
:10042600FFEE33FEED33FDCC33CCC833C810D7070F
:100436009BEC9AE899400AED9BFDEC9AFCE899F84A
:0E0446000FD5F0DAE4CDFBE4CCFAE4C8F922DD
:0E045400C3E49FFFE49EFEE49DFDE49CFC22B9
:00000001FF
