:0606C300C2A58F80D2A742
:0806C9007F027EEFDEFEDFFC84
:0106D1002206
:0A06EB00C2A61206C3C2A70206C988
:1005EA00CFCDCFCECCCE1203317C007D0A1203319F
:0405FA00ED2430FFBD
:0A05FE00D2A61206C3C2A70206C966
:10069D007F381206EB7F0C1206EB7F061206EB7FFE
:0406AD00010206EB55
:10067200AE07BE0104ED148006BE0209ED243F441C
:0606820080FF1206EB22CE
:0A06F500AC03120672AF040205FE0A
:0605A5008B108A1189127F
:1005AB00120672E4FDAB10AA11A9128D827583009D
:0C05BB001202F2FF60061205FE0D80E93E
:0105C7002211
:0405C800AB05A907CF
:1005CC007D017C00E4FAEAC39B500EE9FF7E001229
:0D05DC00031FAC06AD070A80EDAE04AF05AD
:0105E90022EF
:04057C008A128B1341
:10058000120672E4F515E515C395145017E5141419
:10059000C39515FD7F0A1205C8AC12AD131205EA0A
:0405A000051580E2DB
:0105A4002234
:10050B00120672C3EA64809480400B7F2B1205FEA7
:10051B008A0E8B0F800E7F2D1205FEC3E49BF50F09
:10052B00E49AF50EE4F50DE50DC3950C5017E50CAB
:10053B0014C3950DFD7F0A1205C8AC0EAD0F120545
:05054B00EA050D80E24D
:010550002288
:0506FF0054656D700060
:1004620012069D1207047BFF7A0679FF7D017F0148
:100472001205A51206D21205518F198E188D178CEE
:1004820016E4FFFEFDFCAB19AA18A917A816120163
:10049200A9501E7B2D7D017F021206F5AF19AE1801
:1004A200AD17AC161202228F198E188D178C16807A
:1004B200097B2B7D017F021206F5AF19AE18AD172D
:1004C200AC16120271AB07AA067514037D027F02F5
:1004D20012057C7B2E7D057F021206F57F007E4091
:1004E2007D1C7C46AB19AA18A917A8161200031284
:1004F2000271E47B107A27F9F81203C27514047DA5
:09050200067F0212057C0204755B
:03070400020625C5
:0D06D2001207047FCC1206417F440206414E
:100551001207047FCC1206417FBE12064112060823
:100561008F10120608EFFEE510FFFDAC06EC12023B
:0B05710038E4FBFA7980784102010CAD
:10062500D2B7C2B77FF0DFFED2B77F1EDFFEA2B71B
:0B063500E433FE7FFADFFED2B7AF0611
:010640002297
:1006B100C2B77E05DEFEEF24FF92B77E1DDEFED2BD
:0106C100B781
:0106C2002215
:10065A00C2B77F02DFFED2B77F02DFFEA2B7E43362
:07066A00FE7F1BDFFEAF065F
:010671002266
:02064100AD0703
:10064300E4FCA8047401088002C333D8FC5DFF12E4
:0606530006B10CBC08EC2E
:01065900227E
:10060800E4FDFC12065AEF600DA80474010880028C
:0C061800C333D8FC42050CBC08E9AF0558
:0106240022B3
:10068800EF1FAC0670011E4C600A7D027CEFDCFE99
:04069800DDFC80EC19
:01069C00223B
:10000300EC4D6011E8497017ED33EC3304600DE4F7
:10001300FCFFFEFD22E933E8330470F80202DD122F
:1000230002A858046009E4CC248150062850090230
:1000330002E72840030202E4C0E0EB4A7044B980BF
:1000430006D0E0FB0202D3EF4E701CBD8008EBFF2D
:10005300EAFEE9FD80EBE98DF0A4FEE5F00200EC99
:10006300E9CDF9EAFEEBFFEF89F0A4FCE5F0CE89D8
:10007300F0A42EFFE435F0CD89F0A42DFEE435F095
:100083008067EF4E7005BD80D780C3EF8BF0A4ACC3
:10009300F0EE8BF0A42CFCE435F0F8EF8AF0A42CFE
:1000A300E5F038FCE433CB8DF0A42CFCE5F03BF811
:1000B300EE8AF0A42CFCE5F038F8E433CF89F0A401
:1000C3002CFCE5F038CF3400CE89F0A42FFFE5F007
:1000D3003EFEE433C98DF0A42EFEE5F039CD8AF05F
:1000E300A42FFFE5F03EFEE43DFD33D0E0FB5007D7
:1000F3000BBB000F0202E7EC2CFCEF33FFEE33FEE9
:06010300ED33FD0202BF16
:100109000202E7EC5D046005E8590470030202DDB0
:100119001202A8580460F6EC4860F2EC7004FDFE87
:10012900FF22C860DB2481C85009C39860025006C9
:100139000202E49850CAF582E9294B4A7005AB825C
:100149000202D375F0007C1A7880C3EF9BEE9AED1A
:1001590099400DC3EF9BFFEE9AFEED99FDE842F041
:10016900DC23ACF0D0E0FFD0E0FED0E0FDAB822094
:10017900E7101BEB60BAEC2CFCEF33FFEE33FEED1E
:1001890033FD0202BFE803F830E705C0F075F0005F
:10019900EF2FFFEE33FEED33FD40B830E7C280AA02
:1001A90074F8CC6480CCC86480C8F58204604FC3FD
:1001B900EB9FF5F0EA9E42F0E99D42F0E89C45F09C
:1001C900603C501DE5825FFFE582D313CB5BCBF426
:1001D9002B5582FB50280ABA002409B9002008804F
:1001E9001DE5825BFBE582D313CF5FCFF4C3132FE9
:1001F9005582FF50090EBE00050DBD00010CC3EB71
:100209009FF5F0EA9E42F0E99D42F0E89C45F060D6
:0902190007CC4820E701B3EC22F8
:10022200ED33EC33600A047003BD8004ECB2E7FCEA
:0102320022A9
:1002330075F020800E75F010800575F0087D007E46
:10024300007F003392D530D503120454EC334010B1
:10025300EF33FFEE33FEED33FDEC33FCD5F0ED224F
:0E026300E5F0247EA2D513CC92E7CDCEFF228B
:10027100EDD2E7CD33EC3392D524814006E4FFFE85
:10028100FDFC22FCE4CFCECDCC24E0501174FF80E4
:10029100EDC3CC13CCCD13CDCE13CECF13CF047081
:0702A100F030D5DE02045429
:1002A800E9D2E7C933E833F892D5EDD2E7CD33EC9C
:0702B80033FC5002B2D52215
:1002BF00EC30E7100FBF000C0EBE00080DBD0004A0
:1002CF000BEB6014A2D5EB13FCED92E7FD2274FF4C
:1002DF00FCFDFEFF22E480F8A2D574FF13FC7D80A5
:0302EF00E480EFB9
:030000000206DF16
:0C06DF00787FE4F6D8FD758119020462F2
:1002F200BB010CE58229F582E5833AF583E02250C1
:1003020006E92582F8E622BBFE06E92582F8E2220A
:0D031200E58229F582E5833AF583E4932224
:10031F00EF8DF0A4A8F0CF8CF0A428CE8DF0A42EF2
:02032F00FE22AC
:10033100BC000BBE0029EF8DF084FFADF022E4CCB0
:10034100F875F008EF2FFFEE33FEEC33FCEE9DEC79
:10035100984005FCEE9DFE0FD5F0E9E4CEFD22EDBF
:10036100F8F5F0EE8420D21CFEADF075F008EF2F09
:10037100FFED33FD4007985006D5F0F222C398FDFA
:050381000FD5F0EA2297
:1003860075F008758200EF2FFFEE33FECD33CDCC2E
:1003960033CCC58233C5829BED9AEC99E5829840B1
:1003A6000CF582EE9BFEED9AFDEC99FC0FD5F0D68E
:1003B600E4CEFBE4CDFAE4CCF9A88222B800C1B9B8
:1003C6000059BA002DEC8BF084CFCECDFCE5F0CBF6
:1003D600F97818EF2FFFEE33FEED33FDEC33FCEB2F
:1003E60033FB10D703994004EB99FB0FD8E5E4F9EA
:1003F600FA227818EF2FFFEE33FEED33FDEC33FCD7
:10040600C933C910D7059BE99A4007EC9BFCE99ACA
:10041600F90FD8E0E4C9FAE4CCFB2275F010EF2F0F
:10042600FFEE33FEED33FDCC33CCC833C810D7070F
:100436009BEC9AE899400AED9BFDEC9AFCE899F84A
:0E0446000FD5F0DAE4CDFBE4CCFAE4C8F922DD
:0E045400C3E49FFFE49EFEE49DFDE49CFC22B9
:00000001FF
