:020000040800F2
:1000000000500020ED1E0008211A0008231A0008E5
:10001000251A0008271A0008291A00080000000005
:100020000000000000000000000000002B1A000883
:100030002D1A0008000000002F1A0008311A0008CD
:10004000351F0008351F0008351F0008351F000840
:10005000351F0008351F0008351F0008351F000830
:10006000351F0008351F0008351F0008351F000820
:10007000351F0008351F0008351F0008391A000811
:10008000351F0008351F0008351F0008351F000800
:10009000351F0008351F0008351F0008351F0008F0
:1000A000351F0008351F0008351F0008351F0008E0
:1000B000351F0008491A0008591A0008351F0008A2
:1000C000351F0008351F0008351F0008351F0008C0
:1000D000351F0008691A0008351F0008351F000881
:1000E000351F0008351F0008351F000800000000FC
:1000F0000000000000000000000000000000000000
:0C01000000000000000000005FF808F1A3
:1001100010B5054C237833B9044B13B10448AFF341
:1001200000800123237010BDE009002000000000C2
:10013000C0B0000808B5034B1BB103490348AFF337
:10014000008008BD00000000E4090020C0B00008E5
:1001500080F0004002E000BF81F0004142001FBF7C
:100160005FEA410392EA030F7FEA226C7FEA236C85
:100170006AD04FEA1262D2EB1363C1BFD21841407A
:1001800048404140B8BF5B42192B88BF704710F010
:10019000004F40F4000020F07F4018BF404211F0B3
:1001A000004F41F4000121F07F4118BF494292EA1B
:1001B000030F3FD0A2F1010241FA03FC10EB0C0047
:1001C000C3F1200301FA03F100F0004302D54942D4
:1001D00060EB4000B0F5000F13D3B0F1807F06D381
:1001E00040084FEA310102F10102FE2A51D2B1F179
:1001F000004F40EBC25008BF20F0010040EA03006E
:100200007047490040EB0000013A28BFB0F5000FED
:10021000EDD2B0FA80FCACF1080CB2EB0C0200FAA3
:100220000CF0AABF00EBC25052421843BCBFD040F2
:100230001843704792F0000F81F4000106BF80F46C
:1002400000000132013BB5E74FEA41037FEA226C2F
:1002500018BF7FEA236C21D092EA030F04D092F0FA
:10026000000F08BF0846704790EA010F1CBF00202E
:10027000704712F07F4F04D1400028BF40F000408B
:10028000704712F100723CBF00F50000704700F0AB
:10029000004343F0FE4040F4000070477FEA2262D2
:1002A00016BF08467FEA23630146420206BF5FEAA3
:1002B000412390EA010F40F4800070474FF00003A3
:1002C00004E000BF10F0004348BF40425FEA000C6A
:1002D00008BF704743F0964301464FF000001CE012
:1002E00050EA010208BF70474FF000030AE000BF68
:1002F00050EA010208BF704711F0004302D54042A6
:1003000061EB41015FEA010C02BF84460146002017
:1003100043F0B64308BFA3F18053A3F50003BCFA32
:100320008CF2083AA3EBC25310DB01FA02FC6344DF
:1003300000FA02FCC2F12002BCF1004F20FA02F2E6
:1003400043EB020008BF20F00100704702F12002D9
:1003500001FA02FCC2F1200250EA4C0021FA02F23A
:1003600043EB020008BF20EADC7070474FF0FF0C3F
:100370001CEAD0521EBF1CEAD15392EA0C0F93EA3A
:100380000C0F6FD01A4480EA010C400218BF5FEADC
:1003900041211ED04FF0006343EA501043EA51114F
:1003A000A0FB01310CF00040B1F5000F3EBF490049
:1003B00041EAD3715B0040EA010062F17F02FD2A4D
:1003C0001DD8B3F1004F40EBC25008BF20F0010030
:1003D000704790F0000F0CF0004C08BF49024CEA47
:1003E000502040EA51207F3AC2BFD2F1FF0340EAD9
:1003F000C250704740F400004FF00003013A5DDC4A
:1004000012F1190FDCBF00F000407047C2F100028A
:10041000410021FA02F1C2F1200200FA02FC5FEA77
:10042000310040F1000053EA4C0308BF20EADC70C1
:10043000704792F0000F00F0004C02BF400010F433
:10044000000F013AF9D040EA0C0093F0000F01F0E0
:10045000004C02BF490011F4000F013BF9D041EA02
:100460000C018FE70CEAD15392EA0C0F18BF93EA04
:100470000C0F0AD030F0004C18BF31F0004CD8D12E
:1004800080EA010000F00040704790F0000F17BFB5
:1004900090F0004F084691F0000F91F0004F14D0FB
:1004A00092EA0C0F01D142020FD193EA0C0F03D153
:1004B0004B0218BF084608D180EA010000F0004056
:1004C00040F0FE4040F40000704740F0FE4040F431
:1004D000400070474FF0FF0C1CEAD0521EBF1CEAD0
:1004E000D15392EA0C0F93EA0C0F69D0A2EB0302EE
:1004F00080EA010C49024FEA402037D04FF0805388
:1005000043EA111143EA10130CF000408B4238BF4C
:100510005B0042F17D024FF4000C8B4224BF5B1A5A
:1005200040EA0C00B3EB510F24BFA3EB510340EAA8
:100530005C00B3EB910F24BFA3EB910340EA9C0056
:10054000B3EBD10F24BFA3EBD10340EADC001B01C6
:1005500018BF5FEA1C1CE0D1FD2A3FF650AF8B426A
:1005600040EBC25008BF20F0010070470CF0004C77
:100570004CEA50207F32C2BFD2F1FF0340EAC250A2
:10058000704740F400004FF00003013A37E792F063
:10059000000F00F0004C02BF400010F4000F013AC1
:1005A000F9D040EA0C0093F0000F01F0004C02BFBC
:1005B000490011F4000F013BF9D041EA0C0195E725
:1005C0000CEAD15392EA0C0F08D142027FF47DAFBE
:1005D00093EA0C0F7FF470AF084676E793EA0C0FAE
:1005E00004D14B023FF44CAF08466EE730F0004CAC
:1005F00018BF31F0004CCAD130F000427FF45CAF3C
:1006000031F000437FF43CAF5FE700BF42000ED201
:10061000B2F1FE4F0BD34FF09E03B3EB126209D43D
:100620004FEA002343F0004323FA02F070474FF0F3
:100630000000704712F1610F01D1420202D14FF068
:10064000FF3070474FF00000704700BF53B94AB900
:10065000002908BF00281CBF4FF0FF314FF0FF30CA
:1006600000F076B9ADF1080C6DE904CE00F006F8A3
:10067000DDF804E0DDE9022304B070472DE9F0471E
:10068000089E0D4604468846002B4DD18A4294466A
:1006900068D9B2FA82F252B101FA02F3C2F1200132
:1006A00020FA01F10CFA02FC41EA030894404FEAF7
:1006B0001C41B8FBF1F71FFA8CFE01FB178807FB02
:1006C0000EF0230C43EA084398420AD91CEB0303BB
:1006D00007F1FF3580F01E81984240F21B81023FF6
:1006E00063441B1AB3FBF1F001FB103300FB0EFE59
:1006F000A4B244EA0344A6450AD91CEB040400F161
:10070000FF3380F00981A64540F206816444023837
:100710000021A4EB0E0440EA07401EB10023D440A0
:10072000C6E90043BDE8F0878B4208D9002E00F0EF
:10073000EE800021C6E900050846BDE8F087B3FA5F
:1007400083F100294AD1AB4202D3824200F2FC80FD
:10075000841A65EB030301209846002EE2D0C6E917
:100760000048DFE702B9FFDEB2FA82F2002A40F069
:100770009180A1EB0C0001214FEA1C471FFA8CFE6F
:10078000B0FBF7F307FB1300250C45EA00450EFB11
:1007900003F0A84208D91CEB050503F1FF3802D28B
:1007A000A84200F2CE8043462D1AB5FBF7F007FBB6
:1007B00010550EFB00FEA4B244EA0544A64508D934
:1007C0001CEB040400F1FF3502D2A64500F2B6800E
:1007D0002846A4EB0E0440EA03409EE7C1F120073F
:1007E0008B4022FA07FC4CEA030C25FA07FA4FEA81
:1007F0001C49BAFBF9F820FA07F309FB18AA8D4047
:100800001FFA8CFE1D4300FA01F308FB0EF02C0CBE
:1008100044EA0A44A04202FA01F20BD91CEB040498
:1008200008F1FF3A80F08880A04240F28580A8F16C
:1008300002086444241AB4FBF9F009FB104400FBDD
:100840000EFEADB245EA0444A64508D91CEB0404EB
:1008500000F1FF356CD2A6456AD90238644440EAFB
:100860000840A0FB0295A4EB0E04AC42C846AE467D
:1008700056D353D0002E69D0B3EB080264EB0E04BC
:1008800022FA01F304FA07F71F43CC40C6E90074CB
:10089000002147E70CFA02FCC2F1200125FA01F31E
:1008A0004FEA1C4720FA01F195400D43B3FBF7F1E5
:1008B00007FB11331FFA8CFE280C40EA034001FBB2
:1008C0000EF3834204FA02F408D91CEB000001F194
:1008D000FF382FD283422DD902396044C01AB0FBB1
:1008E000F7F307FB1300ADB245EA004503FB0EF03A
:1008F000A84208D91CEB050503F1FF3816D2A8421F
:1009000014D9023B6544281A43EA014138E73146CD
:10091000304607E72F46E4E61846F9E64B45A9D2EC
:10092000B9EB020865EB0C0E0138A3E74346EAE792
:10093000284694E74146D1E7D0467BE76444023835
:1009400047E7023B65442FE7084606E73146E9E6FC
:10095000704700BF844641EA000313F0030349D106
:10096000403A23D30B6803604B6843608B68836015
:10097000CB68C3600B6903614B6943618B69836119
:10098000CB69C3610B6A03624B6A43628B6A836201
:10099000CB6AC3620B6B03634B6B43638B6B8363E9
:1009A000CB6BC36340304031403ADBD230320BD3A3
:1009B0000B6803604B6843608B688360CB68C360DF
:1009C00010301031103AF3D20C3205D351F8043BF9
:1009D00040F8043B043AF9D2043208D0D2071CBFD5
:1009E00011F8013B00F8013B01D30B8803806046FE
:1009F000704700BF082A13D38B07B1D010F0030350
:100A0000AED0C3F10403D21ADB071CBF11F8013BBF
:100A100000F8013BA4D331F8023B20F8023B9FE7EA
:100A2000043AD9D3013A11F8013B00F8013BF9D25D
:100A30000B7803704B7843708B78837060467047F7
:100A400081F0004102E000BF83F0004330B54FEA7F
:100A500041044FEA430594EA050F08BF90EA020FEC
:100A60001FBF54EA000C55EA020C7FEA645C7FEA7F
:100A7000655C00F0E2804FEA5454D4EB5555B8BFA2
:100A80006D420CDD2C4480EA020281EA030382EA13
:100A9000000083EA010180EA020281EA0303362DA5
:100AA00088BF30BD11F0004F4FEA01314FF4801C78
:100AB0004CEA113102D0404261EB410113F0004F8A
:100AC0004FEA03334CEA133302D0524263EB430341
:100AD00094EA050F00F0A780A4F10104D5F1200EDF
:100AE0000DDB02FA0EFC22FA05F2801841F100013A
:100AF00003FA0EF2801843FA05F359410EE0A5F10E
:100B000020050EF1200E012A03FA0EFC28BF4CF03E
:100B1000020C43FA05F3C01851EBE37101F00045F4
:100B200007D54FF0000EDCF1000C7EEB00006EEB01
:100B30000101B1F5801F1BD3B1F5001F0CD349088B
:100B40005FEA30004FEA3C0C04F101044FEA4452E2
:100B500012F5800F80F09A80BCF1004F08BF5FEA69
:100B6000500C50F1000041EB045141EA050130BD49
:100B70005FEA4C0C404141EB0101013C28BFB1F55B
:100B8000801FE9D291F0000F04BF01460020B1FAA6
:100B900081F308BF2033A3F10B03B3F120020CDA79
:100BA0000C3208DD02F1140CC2F10C0201FA0CF057
:100BB00021FA02F10CE002F11402D8BFC2F1200CBC
:100BC00001FA02F120FA0CFCDCBF41EA0C01904072
:100BD000E41AA2BF01EB0451294330BD6FEA0404BB
:100BE0001F3C1CDA0C340EDC04F11404C4F12002A6
:100BF00020FA04F001FA02F340EA030021FA04F3B8
:100C000045EA030130BDC4F10C04C4F1200220FA0E
:100C100002F001FA04F340EA0300294630BD21FA4C
:100C200004F0294630BD94F0000F83F4801306BF12
:100C300081F480110134013D4EE77FEA645C18BF06
:100C40007FEA655C29D094EA050F08BF90EA020F9D
:100C500005D054EA000C04BF1946104630BD91EA95
:100C6000030F1EBF0021002030BD5FEA545C05D198
:100C70004000494128BF41F0004130BD14F58004D7
:100C80003CBF01F5801130BD01F0004545F0FE414B
:100C900041F470014FF0000030BD7FEA645C1ABF80
:100CA000194610467FEA655C1CBF0B46024650EAB7
:100CB000013406BF52EA033591EA030F41F40021E3
:100CC00030BD00BF90F0000F04BF0021704730B569
:100CD0004FF4806404F132044FF000054FF000013E
:100CE00050E700BF90F0000F04BF0021704730B5FF
:100CF0004FF4806404F1320410F0004548BF4042D4
:100D00004FF000013EE700BF42004FEAE2014FEA28
:100D100031014FEA02701FBF12F07F4393F07F4F03
:100D200081F06051704732F07F4208BF704793F006
:100D30007F4F04BF41F40021704730B54FF4607419
:100D400001F0004521F000411CE700BF50EA01021C
:100D500008BF704730B54FF000050AE050EA0102C5
:100D600008BF704730B511F0004502D5404261EB35
:100D700041014FF4806404F132045FEA915C3FF476
:100D8000D8AE4FF003025FEADC0C18BF03325FEA13
:100D9000DC0C18BF033202EBDC02C2F1200300FAC4
:100DA00003FC20FA02F001FA03FE40EA0E0021FAE9
:100DB00002F11444BDE600BF70B54FF0FF0C4CF4D7
:100DC000E06C1CEA11541DBF1CEA135594EA0C0F89
:100DD00095EA0C0F00F0DEF82C4481EA030621EAC4
:100DE0004C5123EA4C5350EA013518BF52EA0335FF
:100DF00041F4801143F4801338D0A0FB02CE4FF0B1
:100E00000005E1FB02E506F00042E0FB03E54FF0E0
:100E10000006E1FB03569CF0000F18BF4EF0010ED8
:100E2000A4F1FF04B6F5007F64F5407404D25FEAD4
:100E30004E0E6D4146EB060642EAC62141EA555187
:100E40004FEAC52040EA5E504FEACE2EB4F1FD0CC9
:100E500088BFBCF5E06F1ED8BEF1004F08BF5FEA47
:100E6000500E50F1000041EB045170BD06F00046F9
:100E700046EA010140EA020081EA0301B4EB5C04A6
:100E8000C2BFD4EB0C0541EA045170BD41F480119E
:100E90004FF0000E013C00F3AB8014F1360FDEBFC3
:100EA000002001F0004170BDC4F10004203C35DA9F
:100EB0000C341BDC04F11404C4F1200500FA05F322
:100EC00020FA04F001FA05F240EA020001F00042C3
:100ED00021F0004110EBD37021FA04F642EB060139
:100EE0005EEA430E08BF20EAD37070BDC4F10C0463
:100EF000C4F1200500FA04F320FA05F001FA04F227
:100F000040EA020001F0004110EBD37041F1000112
:100F10005EEA430E08BF20EAD37070BDC4F120051D
:100F200000FA05F24EEA020E20FA04F301FA05F285
:100F300043EA020321FA04F001F0004121FA04F22D
:100F400020EA020000EBD3705EEA430E08BF20EAFD
:100F5000D37070BD94F0000F0FD101F00046400037
:100F600041EB010111F4801F08BF013CF7D041EAB9
:100F7000060195F0000F18BF704703F000465200BD
:100F800043EB030313F4801F08BF013DF7D043EA8E
:100F90000603704794EA0C0F0CEA135518BF95EA44
:100FA0000C0F0CD050EA410618BF52EA4306D1D1CB
:100FB00081EA030101F000414FF0000070BD50EAEA
:100FC000410606BF1046194652EA430619D094EA74
:100FD0000C0F02D150EA013613D195EA0C0F05D15E
:100FE00052EA03361CBF104619460AD181EA0301B2
:100FF00001F0004141F0FE4141F470014FF000006A
:1010000070BD41F0FE4141F4780170BD70B54FF004
:10101000FF0C4CF4E06C1CEA11541DBF1CEA135584
:1010200094EA0C0F95EA0C0F00F0A7F8A4EB050466
:1010300081EA030E52EA03354FEA013100F088805D
:101040004FEA03334FF0805545EA131343EA126326
:101050004FEA022245EA111545EA10654FEA0026DB
:101060000EF000419D4208BF964244F1FD0404F594
:10107000407402D25B084FEA3202B61A65EB0305F0
:101080005B084FEA32024FF480104FF4002CB6EBAD
:10109000020E75EB030E22BFB61A754640EA0C002D
:1010A0005B084FEA3202B6EB020E75EB030E22BF6D
:1010B000B61A754640EA5C005B084FEA3202B6EBAE
:1010C000020E75EB030E22BFB61A754640EA9C006D
:1010D0005B084FEA3202B6EB020E75EB030E22BF3D
:1010E000B61A754640EADC0055EA060E18D04FEAFB
:1010F000051545EA16754FEA06164FEAC30343EA9B
:1011000052734FEAC2025FEA1C1CC0D111F4801F67
:101110000BD141EA00014FF000004FF0004CB6E760
:1011200011F4801F04BF01430020B4F1FD0C88BFFF
:10113000BCF5E06F3FF6AFAEB5EB030C04BFB6EB0A
:10114000020C5FEA500C50F1000041EB045170BDFD
:101150000EF0004E4EEA113114EB5C04C2BFD4EB2A
:101160000C0541EA045170BD41F480114FF0000EAE
:10117000013C90E645EA060E8DE60CEA135594EA2A
:101180000C0F08BF95EA0C0F3FF43BAF94EA0C0F2D
:101190000AD150EA01347FF434AF95EA0C0F7FF4A2
:1011A00025AF104619462CE795EA0C0F06D152EAF6
:1011B00003353FF4FDAE1046194622E750EA4106DA
:1011C00018BF52EA43067FF4C5AE50EA41047FF4EB
:1011D0000DAF52EA43057FF4EBAE12E74FF0FF3C50
:1011E00006E000BF4FF0010C02E000BF4FF0010C21
:1011F0004DF804CD4FEA410C7FEA6C5C4FEA430C9A
:1012000018BF7FEA6C5C1BD001B050EA410C0CBFE8
:1012100052EA430C91EA030F02BF90EA020F00204A
:10122000704710F1000F91EA030F58BF994208BFB1
:1012300090422CBFD8176FEAE37040F0010070476E
:101240004FEA410C7FEA6C5C02D150EA013C07D1C5
:101250004FEA430C7FEA6C5CD6D152EA033CD3D010
:101260005DF8040B704700BF8446104662468C460A
:101270001946634600E000BF01B5FFF7B7FF00283D
:1012800048BF10F1000F01BD4DF808EDFFF7F4FF66
:101290000CBF012000205DF808FB00BF4DF808EDF1
:1012A000FFF7EAFF34BF012000205DF808FB00BF14
:1012B0004DF808EDFFF7E0FF94BF012000205DF836
:1012C00008FB00BF4DF808EDFFF7CEFF94BF0120EB
:1012D00000205DF808FB00BF4DF808EDFFF7C4FFE4
:1012E00034BF012000205DF808FB00BF4FEA410C2D
:1012F0007FEA6C5C02D150EA013C0AD14FEA430C10
:101300007FEA6C5C02D152EA033C02D14FF000004C
:1013100070474FF0010070474FEA410212F500128A
:1013200015D211D56FF47873B3EB625212D94FEA2C
:10133000C12343F0004343EA505311F0004F23FA16
:1013400002F018BF404270474FF00000704750EA6B
:10135000013005D111F0004008BF6FF00040704728
:101360004FF00000704700BF00B583B00A4B5A69C8
:1013700042F001025A615B6903F001030193019B92
:10138000002211460F2000F033FE0F2000F068FE0F
:1013900003B05DF804FB00BF0010024084B00F4BA7
:1013A0009A6942F020029A619A6902F02002019241
:1013B000019A9A6942F004029A619A6902F0040261
:1013C0000292029A9A6942F008029A619B6903F0BC
:1013D00008030393039B04B0704700BF0010024052
:1013E00008B50B480B4B03600B4B43600023836035
:1013F000C3604FF48042026143618361C361036251
:1014000001F06CFA00B908BD00F068F9FBE700BF15
:10141000FC09002000540040A086010010B586B0F1
:10142000002302930393049305930268154B9A4299
:1014300001D006B010BD144CA36943F00803A361AA
:10144000A36903F008030093009B4FF440730293D9
:10145000122303930323059302A90C4801F01EF9FC
:101460000B4A536843F0E06343F002035360E369BF
:1014700043F40013E361E36903F400130193019B58
:10148000D7E700BF0054004000100240000C0140AC
:10149000000001401B4B834200D0704710B51A4B2F
:1014A0005B78DBB2042B03D0174B5B7800240FE092
:1014B0000023164A1370144A1370154A13605360C0
:1014C000F4E7611C2022C9B2012003F0DFFA0134E5
:1014D000072C0BDC0D4B1B78DBB2A342F1DD611C4A
:1014E0002A22C9B2012003F0D1FAF0E7064B1B789B
:1014F000DBB2022B02D9044B06225A70024803F0D9
:101500002FF910BD2C0B00205C0A0020580A002087
:10151000500A002010B50C460522534B1968534859
:1015200002F047FF002841D1002305E05A1D4F4833
:10153000805C4F4AD05401339C42F7DC08224D496D
:101540004B4802F036FF20B94B4B5B78DBB2022BE5
:1015500021D0494B5B78DBB2042B23D0464A137869
:101560000133DBB213701178C1F10301434803F07A
:1015700097FC3E4900230B604B608B60CB600B6196
:101580003B4A136053609360D360136114223C485C
:1015900002F0DCFE10BD384B04225A70394803F0CB
:1015A000E1FCE6E7384803F0DDFCE2E706222E4BDB
:1015B00059682E4802F0FDFE18BB2F4B5B78DBB25A
:1015C000042B01D1002309E0304803F0CBFCD0E725
:1015D0009A1D2649895C264AD1540133072BF7DD31
:1015E00008222B49224802F0E4FE30B9224B0322A4
:1015F0005A70284803F0B6FCBBE7274803F0B2FC5A
:10160000B7E71D4B5B78DBB2032B03D01A4B0222EA
:101610005A70AEE70522144B9968144802F0C9FECF
:1016200030B91E4803F0E8F81D4803F09BFCA0E722
:1016300007220D4BD9680D4802F0BBFE002898D157
:10164000002305E0DA1D0949895C094AD1540133B8
:10165000072BF7DD0023134A0821054803F0EAF8B9
:10166000114803F07FFC84E71C000020700A002072
:10167000840A00205E0A00205C0A0020E8B000080E
:10168000B80B0020D8B0000834B100085CB10008E5
:10169000660A00208CB10008F8B1000800F80008C4
:1016A00024B2000800F0000844B2000808B50C217C
:1016B000014802F089F808BDE40A002008B50C21B1
:1016C000044802F0EFF800220221034801F0FFF87D
:1016D00008BD00BFE40A0020000C014072B6FEE71E
:1016E00000B591B02822002106A803F087FB002353
:1016F00001930293039304930593012206924FF4FE
:10170000803307930A9202220D920E934FF4E01356
:101710000F9306A801F0D6F980B90F230193022197
:101720000291002303934FF480620492059301A871
:1017300001F0FAFB20B911B05DF804FBFFF7CEFF12
:10174000FFF7CCFF38B500F01DFC8E4D284603F0A6
:10175000BBFAFFF7C5FFFFF721FEFFF705FEFFF716
:101760003FFE00F041FB00F077FA00F0CBFA00F00A
:10177000B9F903F0CEF902F057FE834B00241C7038
:1017800002225A7014228149284602F0DFFD2146C8
:101790007F4802F019F87F4803F0E8F87E4B188084
:1017A0001B889BB24AF6BB22934234D07B4803F09D
:1017B000D9FB7B4803F0D6FB7A4A0121022003F0D3
:1017C00097F9744D284603F017F8774C204603F03C
:1017D00013F8002229464AF6BB2003F089F80023BB
:1017E00022460821714803F025F80A2322460821E1
:1017F0006F4803F01FF8644C6B4A0821A01C03F0EB
:1018000067F86C4A082104F10A0003F061F86A489D
:1018100001F018FD6AE0694803F0A4FBEBE76849B2
:101820008B5C3033DBB28B540132072AF7DD0822A0
:101830006449634802F0BDFD28B9534B04225A7035
:1018400045E00022F1E700235F4A13705C4A136011
:1018500053604D4A13780133DBB2137037E05A4BB3
:101860001B781BB9584B00221A7030E0564B1B787E
:10187000DBB2072B0BD8544B1B78DBB2504A00214C
:10188000D154514A1378013BDBB213701FE0072398
:10189000F4E74D4B00221A7003F0E2F83A4B0222B3
:1018A0005A7014E0494B1B78DBB247490878C0B244
:1018B000474AA2FB0342D20802EB8202A3EB420397
:1018C000DBB23F4A13540B780133DBB20B702E4B63
:1018D0005B78DBB2062B2ED02B4B5B78DBB2042B74
:1018E00048D0294B5B78DBB2022B47D002F00AFFCD
:1018F000364B18701B78DBB2FF2BE8D0334B1B78CC
:10190000DBB2452B9DD0314B1B78DBB2582BA6D0D8
:101910002E4B1B78DBB2422BBBD02C4B1B78DBB29F
:10192000202BD4D0284B1B78DBB2072BBAD9264BFF
:1019300000221A70CBE70024134B1C70114802F0F0
:101940001BFAFFF7B3FE08E0C4F10A01214803F0D7
:10195000A7FAC82002F05DFD0134092CF4DDFFF781
:10196000ADFE094B02225A7014220849054802F0C4
:10197000EDFCBBE7002000F01FFAB7E7164800F0C7
:101980001BFAB3E7B80B00205C0A0020700A0020A5
:101990009C0A002000F800085A0A00206CB20008D7
:1019A000A4B20008B0B2000800F000080CB30008B0
:1019B00004B300080AF000082C0B0020BCB2000899
:1019C000500A00205E0A0020580A0020590A002010
:1019D000CDCCCCCCECB200080000344382B00E4B2E
:1019E0009A6942F001029A619A6902F0010200923A
:1019F000009ADA6942F08052DA61DB6903F08053C1
:101A00000193019B054A536823F0E06343F00073A0
:101A1000536002B0704700BF001002400000014058
:101A2000FEE7FEE7FEE7FEE7FEE770477047704718
:101A300008B500F0B9FA08BD08B5024800F028FC66
:101A400008BD00BF740B002008B5024801F033FC4C
:101A500008BD00BFE40A002008B5024801F02BFCD5
:101A600008BD00BF2C0B002008B5024802F08AFA1E
:101A700008BD00BFB80B00200120704708B503F077
:101A800093F9162303604FF0FF3008BD08B54FF0FF
:101A9000FF31FFF7F3FFFEE710B503460C4A0D498F
:101AA0000D48006840B10C4800680344521A934244
:101AB00006D8094A136010BD0748084C0460F2E7D5
:101AC00003F072F90C2303604FF0FF30F3E700BF1F
:101AD0000050002000040000980A0020C00C0020E4
:101AE0007047000000B587B000230293039304936E
:101AF0000593009301931548154A026047224260FE
:101B0000836049F63F42C2600361836101F0CAFC11
:101B100090B94FF48053029302A90C4801F0C6FD1E
:101B200068B90023009301936946084801F0FCFE60
:101B300040B907B05DF804FBFFF7D0FDE9E7FFF718
:101B4000CDFDEEE7FFF7CAFDF3E700BF2C0B002049
:101B50000008004000B585B00368B3F1804F08D09D
:101B6000194A934211D0194A934219D005B05DF831
:101B700004FB03F50433DA6942F00102DA61DB6940
:101B800003F001030193019BF0E7114BDA6942F086
:101B90000202DA61DB6903F002030293029BE5E7CC
:101BA0000B4BDA6942F00402DA61DB6903F00403EB
:101BB0000393039B002211461E2000F019FA1E20F9
:101BC00000F04EFAD2E700BF0004004000080040D9
:101BD0000010024000B587B00023029303930493E2
:101BE00005930368B3F1804F05D0174A934217D08D
:101BF00007B05DF804FB03F504339A6942F0040270
:101C00009A619B6903F004030093009B01230293F4
:101C100002230393059302A90C4800F03FFDE7E778
:101C20000B4B9A6942F008029A619B6903F0080322
:101C30000193019B022302930393059302A9054894
:101C400000F02CFDD4E700BF000400400008014074
:101C500000100240000C014000B58FB000230A9331
:101C60000B930C930D9308930993019302930393A1
:101C7000049305930693079321484FF08042026036
:101C800047224260836044F61F62C2600361836141
:101C900001F008FC20BB4FF480530A930AA91848AE
:101CA00001F004FDF8B9164801F028FCF0B9002352
:101CB0000893099308A9124801F036FEC8B96023B9
:101CC0000193002202920392059201A90C4801F0AF
:101CD00073FC88B90A48FFF77DFF0FB05DF804FB7D
:101CE000FFF7FCFCD7E7FFF7F9FCDCE7FFF7F6FCB2
:101CF000DDE7FFF7F3FCE2E7FFF7F0FCEAE700BF00
:101D00009C0A002000B58FB000230A930B930C931C
:101D10000D930893099301930293039304930593FE
:101D2000069307932248234A026047224260836059
:101D300040F2E732C2600361836101F0B3FB38BB5C
:101D40004FF480530A930AA9194801F0AFFC10BB65
:101D5000174801F0D3FB08BB00230893099308A997
:101D6000134801F0E1FDE0B9602301934FF4FA73E9
:101D700002930023039305930C2201A90C4801F060
:101D80001BFC88B90A48FFF725FF0FB05DF804FB7C
:101D9000FFF7A4FCD4E7FFF7A1FCD9E7FFF79EFC0F
:101DA000DAE7FFF79BFCDFE7FFF798FCEAE700BF05
:101DB000E40A00200004004010B50749FEF78AFB42
:101DC0000649FEF7D3FA0649FEF7C8F9054B1C6829
:101DD000FEF71CFC606310BD000034430000FA44B1
:101DE0000000FA439C0A002008B50D480D4B036023
:101DF0004FF4E133436000238360C36003610C222E
:101E000042618361C36101F0C3FE28B9142206490F
:101E1000034802F09BFA08BDFFF760FCF6E700BF3D
:101E2000B80B002000380140700A002070B586B061
:101E3000002302930393049305930268274B9A426D
:101E400001D006B070BD044603F558439A6942F4C8
:101E500080429A619A6902F480420092009A9A69DB
:101E600042F004029A619B6903F004030193019B11
:101E70004FF4007302930223039303230593184E38
:101E800002A9304600F00AFC4FF48063029300255B
:101E90000395049502A9304600F000FC1148124B4E
:101EA0000360456085608023C3600561456185618D
:101EB0004FF48053C36100F00BF958B9094BE36349
:101EC0005C6200221146252000F092F8252000F0E7
:101ED000C7F8B6E7FFF702FCF0E700BF00380140A3
:101EE00000080140740B002058000240FFF7F8FD85
:101EF0000B480C490C4A002302E0D458C450043368
:101F0000C4188C42F9D3094A094C002301E013603C
:101F10000432A242FBD302F04DFFFFF713FC7047DF
:101F200000000020E0090020FCBD0008E0090020BE
:101F3000C00C0020FEE7000010B504460E4B1878D8
:101F40004FF47A73B3FBF0F30C4A1068B0FBF3F074
:101F500000F094F868B90F2C01D901200AE00022A2
:101F600021464FF0FF3000F043F8054B1C60002085
:101F700000E0012010BD00BF040000200000002090
:101F80000800002008B5074A136843F010031360E7
:101F9000032000F01BF80F20FFF7CEFFFFF71EFD18
:101FA000002008BD00200240034A1168034B1B7843
:101FB0000B441360704700BF000C00200400002099
:101FC000014B1868704700BF000C0020074AD36817
:101FD00023F4E0631B041B0C000200F4E0600343E5
:101FE00043F0BF6343F40033D360704700ED00E07B
:101FF00000B5194BDB68C3F30223C3F1070CBCF136
:10200000040F28BF4FF0040C03F1040EBEF1060FBD
:1020100018D9033B4FF0FF3E0EFA0CFC21EA0C01ED
:1020200099400EFA03F322EA0303194300280BDB5D
:102030000901C9B200F1604000F5614080F8001369
:102040005DF804FB0023E5E700F00F000901C9B2C9
:10205000024B1954F4E700BF00ED00E014ED00E07E
:10206000002807DB00F01F02400901239340024AC9
:1020700042F82030704700BF00E100E00138B0F1C5
:10208000807F0BD24FF0E0235861054AF02182F89F
:1020900023100020986107221A61704701207047C1
:1020A00000ED00E030B40124056CAC40C56B6C6001
:1020B000046863604368102B05D003689960036867
:1020C000DA6030BC704703689A600368D960F8E74B
:1020D00060B310B402460168154B0B441548A0FBD1
:1020E00003031B099B001364134BD363022382F881
:1020F0002130086820F47F5020F030005368946845
:102100002343D468234314692343546923439469C4
:102110002343D469234303430B60002090630123CE
:1021200082F8213082F8200010BC704701207047EF
:10213000F8FFFDBFCDCCCCCC0000024038B5044642
:1021400090F82000012832D0012084F8200094F873
:102150002100C0B2012804D0002384F820300220DE
:1021600038BD022084F821000020A063256828687B
:1021700020F0010028602046FFF794FFE36A5BB17E
:102180002268136843F00E0313602268136843F05B
:10219000010313600020E3E72268136823F00403BF
:1021A00013602268136843F00A031360EDE702200E
:1021B000D6E790F82130DBB2022B06D004238363EC
:1021C000002380F82030012070470268136823F054
:1021D0000E0313600268136823F001031360036C9D
:1021E000C16B012202FA03F34B6080F82120002327
:1021F00080F820301846704708B590F82130DBB2DF
:10220000022B03D004238363012008BD02681368F6
:1022100023F00E0313600268136823F001031360B8
:102220000368194A934214D0143293421FD01432D7
:1022300093421ED0143293421ED0143293421ED0C9
:102240001432934202D04FF0807203E04FF48012B8
:1022500000E001220D4B5A60012380F82130002359
:1022600080F82030436B6BB198470020CDE71022F7
:10227000F0E74FF48072EDE74FF48052EAE74FF455
:102280008032E7E70020C0E708000240000002407B
:1022900038B5C36B1A6804682568016C04238B4049
:1022A000134235D015F0040F32D0236813F0200FFD
:1022B00003D1236823F0040323600368434A934255
:1022C00014D01432934218D01432934217D01432DF
:1022D000934217D01432934217D01432934202D053
:1022E0004FF0806203E04FF4800200E00422384B9C
:1022F0005A60C36A03B1984738BD4022F7E74FF4EC
:102300008062F4E74FF48042F1E74FF48022EEE779
:1023100002238B4013423CD015F0020F39D02368C2
:1023200013F0200F06D1236823F00A032360012352
:1023300080F821300368254A934214D01432934226
:102340001CD0143293421BD0143293421BD014324F
:1023500093421BD01432934202D04FF0007203E03C
:102360004FF4001200E00222194B5A60002380F85B
:102370002030836A002BBFD09847BDE72022F3E7C7
:102380004FF40072F0E74FF40052EDE74FF40032E3
:10239000EAE7082303FA01F11142ADD015F0080F66
:1023A000AAD0236823F00E032360026CC16B0123C3
:1023B00003FA02F24A60836380F82130002380F838
:1023C0002030036B002B97D0984795E70800024018
:1023D00000000240044B0022DA61044A136943F012
:1023E0000103136101807047080C002000200240A7
:1023F000194BDB6813F0100305D0184AD36943F07A
:102400000203D3611023144AD26812F0040F06D0DD
:102410001249CA6942F00102CA6143F004030E4A3C
:10242000D26912F0010F09D00C49CA6942F00402C6
:10243000CA610949CA6922F00102CA6140F2011267
:10244000934202D0044AD3607047034AD36923F011
:102450000103D361704700BF00200240080C002038
:102460000A4B1B6913F0800F0BD0084B084A5A60C7
:1024700002F188325A601B6913F0800F03D10020EB
:102480007047002070470120704700BF00200240C5
:1024900023016745034A136943F080031361002059
:1024A000704700BF0020024038B50446FFF788FDA2
:1024B0000546164BDB6813F0010F0AD0B4F1FF3F5D
:1024C000F7D024B1FFF77CFD401BA042F1D90320D7
:1024D0001BE00E4BDB6813F0200F02D00B4B2022C9
:1024E000DA600A4BDB6813F0100F0BD1074BDB6986
:1024F00013F0010F06D1054BDB6813F0040F01D177
:10250000002002E0FFF774FF012038BD00200240E8
:102510002DE9F8431E46244B1B7E012B41D0044677
:102520000F469046204B01221A764CF25030FFF7AE
:10253000BBFF034678BB012C08D0022C03D04FF020
:1025400004091C4607E04FF00209FAE74FF00109C1
:10255000F7E70134E4B24C451DD22101C1F120025C
:10256000A1F1200328FA01F106FA02F2114326FA3A
:1025700003F3194389B207EB4400FFF72BFF4CF23A
:102580005030FFF791FF094B1D6925F001051D61D2
:1025900003460028DDD0044A002111761846BDE824
:1025A000F8830223FAE700BF080C00200020024055
:1025B000064B0022DA61064B1A6942F004021A61E6
:1025C0001A6942F040021A61704700BF080C0020EF
:1025D00000200240064B0022DA61064B1A6942F0E5
:1025E00002021A6158611A6942F040021A6170478A
:1025F000080C002000200240264B1B7E012B46D0F9
:1026000070B505460E46234B01221A760368022B4D
:1026100020D04CF25030FFF747FF90BB4FF0FF3314
:102620003360AC680121EA68AB6803EB8223A34204
:1026300028D92046FFF7CEFF4CF25030FFF734FF89
:10264000154A136923F0020313610146B8B904F572
:102650008064E8E74CF25030FFF726FF08B1012113
:1026600010E00120FFF7A4FF4CF25030FFF71CFFF1
:102670000146094A136923F00403136102E0346040
:1026800000E00121034B00221A76084670BD0221AA
:1026900008467047080C00200020024070B582B048
:1026A0000024A446A6E0804DAA4210D007D97F4D51
:1026B000AA420CD005F58035AA4208D013E0A5F552
:1026C0008015AA4203D005F57025AA4207D18A6871
:1026D000002A58D0012A51D04361082403E0A5F50F
:1026E0008015AA42F3D0BEF1FF0F4ED80646BEF1C8
:1026F000FF0F4CD84FEA8C0233680F25954023EA30
:10270000050304FA02F2134333604B6813F0805F51
:102710006ED0674B9A6942F001029A619B6903F09F
:1027200001030193019B4FEA9C02951C614B53F8F6
:1027300025600CF003039D000F23AB4026EA03063F
:102740005D4B984229D003F58063984200F08E805B
:1027500003F58063984200F08B8003F58063984214
:1027600019D004231AE0CC68BDE7CC680434BAE77A
:10277000CC680834B7E7CC680C34B4E703610824AC
:10278000B1E70024AFE70424ADE7061DAFE7ACF1E5
:1027900008029200B0E7032300E00023AB4033437C
:1027A0000232444D45F822304B6813F4801F61D04B
:1027B000424A936843EA0E0393604B6813F4001F88
:1027C0005ED03E4AD36843EA0E03D3604B6813F4ED
:1027D000003F5BD0394A536843EA0E0353604B68AD
:1027E00013F4803F58D0354A136843EA0E03136050
:1027F0000CF1010C0A6832FA0CF353D0012303FAEE
:102800000CF302EA030E33EA0202F1D14A68122AFB
:102810003FF649AF122A3FF666AF01A555F822F000
:10282000CF260008672700087127000883270008C3
:10283000E7260008E7260008E7260008E726000844
:10284000E7260008E7260008E7260008E726000834
:10285000E7260008E7260008E7260008E726000824
:10286000E72600086B27000877270008012395E773
:10287000022393E7114A936823EA0E0393609CE7CF
:102880000E4AD36823EA0E03D3609FE70B4A5368CE
:1028900023EA0E035360A2E7084A136823EA0E03F3
:1028A0001360A5E702B070BD0000221000003110D7
:1028B00000100240000001400008014000040140F7
:1028C0008368194201D001207047002070470AB187
:1028D000016170470904016170470000002800F0A1
:1028E000CC8070B5044690F83D30002B77D024237F
:1028F00084F83D302268136823F0010313602268D6
:10290000136843F4004313602268136823F4004300
:10291000136000F0C5FB62685A4B9A4264D85A4B68
:1029200098428CBF00230123002B40F0A880574918
:10293000A1FB00318B0C25686A6822F03F0242EA55
:1029400091426A6021680A6A22F03F0266684D4D32
:10295000AE424FD8013313430B622168CA6922F497
:102960004F4222F0FF026668464B9E424CD8431EFF
:102970007600B3FBF6F3013340F6FC70034278D0E7
:10298000C3F30B031343CB6121680B6823F0C0032F
:10299000E269206A024313430B6021688B6823F4C9
:1029A000034323F0FF032269E068024313438B6073
:1029B0002168CB6823F0FF036269A06902431343D7
:1029C000CB602268136843F0010313600020206489
:1029D000202384F83D30206384F83E0070BD80F8E9
:1029E0003C30FEF71BFD82E7294B98428CBF002349
:1029F000012399E74FF4967505FB03F3254DA5FBDD
:102A000003539B090133A6E7A368BBB9451E06EB38
:102A1000460CB5FBFCF50135C5F30B05B5FA85F59C
:102A20006D0945BBC3B9013806EB4603B0FBF3F3B0
:102A30000133C3F30B0343F40043A3E7451E06EB46
:102A4000860C0CEB8C0CB5FBFCF50135C5F30B05C6
:102A5000B5FA85F56D09E4E7013806EB860303EB6B
:102A60008303B0FBF3F30133C3F30B0343F440439D
:102A700088E7042386E7012384E7012070470120CB
:102A8000ACE700BFA08601007F841E0083DE1B43ED
:102A9000FF083D00D34D621082B0084B1B68084A06
:102AA000A2FB03235B0A00FB03F3019300BF019B1E
:102AB0005A1E0192002BF9D102B07047000000208D
:102AC000D34D6210002800F0F18170B582B0044649
:102AD000036813F0010F2CD0994B5B6803F00C03D3
:102AE000042B1DD0964B5B6803F00C03082B12D00F
:102AF0006368B3F5803F41D0002B55D103F180438B
:102B000003F504331A6822F480321A601A6822F43A
:102B100080221A6037E08A4B5B6813F4803FE7D06D
:102B2000874B1B6813F4003F03D06368002B00F051
:102B3000BF81236813F0020F75D0814B5B6813F0DF
:102B40000C0F5FD07E4B5B6803F00C03082B54D056
:102B50002369002B00F08A807A4B01221A60FFF76C
:102B60002FFA0546764B1B6813F0020F75D1FFF75D
:102B700027FA401B0228F5D903209EE1704A13680A
:102B800043F480331360636843B3FFF719FA0546D3
:102B90006B4B1B6813F4003FCBD1FFF711FA401BBE
:102BA0006428F5D9032088E1B3F5A02F09D0644B40
:102BB0001A6822F480321A601A6822F480221A609D
:102BC000E1E703F18043A3F53C331A6842F4802225
:102BD0001A601A6842F480321A60D4E7FFF7F0F9FD
:102BE0000546574B1B6813F4003FA2D0FFF7E8F9E6
:102BF000401B6428F5D903205FE1514B5B6813F457
:102C0000803FA5D14E4B1B6813F0020F03D0236900
:102C1000012B40F04F814A4A136823F0F8036169A1
:102C200043EAC1031360236813F0080F33D0A3698C
:102C3000002B5CD0434B0122C3F88024FFF7C0F97E
:102C400005463F4B5B6A13F0020F21D1FFF7B8F93D
:102C5000401B0228F5D903202FE1394A136823F0DD
:102C6000F803616943EAC1031360DCE7354B0022D6
:102C70001A60FFF7A5F90546314B1B6813F0020FE8
:102C8000D1D0FFF79DF9401B0228F5D9032014E1AC
:102C90000120FFF701FF236813F0040F00F0968076
:102CA000274BDB6913F0805F34D1254BDA6942F0A2
:102CB0008052DA61DB6903F080530193019B0125A7
:102CC000214B1B6813F4807F26D0E368012B3DD095
:102CD000002B53D103F1804303F504331A6A22F029
:102CE00001021A621A6A22F004021A6233E0154BDA
:102CF0000022C3F88024FFF763F90546104B5B6A96
:102D000013F0020FC7D0FFF75BF9401B0228F5D97B
:102D10000320D2E00025D3E70B4A136843F4807305
:102D20001360FFF74DF90646074B1B6813F4807FCD
:102D3000CBD1FFF745F9801B6428F5D90320BCE00F
:102D40000010024000004242007000405F4A136AD7
:102D500043F001031362E36833B3FFF731F906462A
:102D60005A4B1B6A13F0020F2FD1FFF729F9801B72
:102D700041F288339842F3D903209EE0052B09D015
:102D8000524B1A6A22F001021A621A6A22F00402F5
:102D90001A62E0E74D4B1A6A42F004021A621A6A9C
:102DA00042F001021A62D6E7FFF70AF90646474BDE
:102DB0001B6A13F0020F08D0FFF702F9801B41F2E3
:102DC00088339842F3D9032077E0E5B9E369002B13
:102DD00072D03E4A526802F00C02082A56D0022BEA
:102DE00017D03B4B00221A66FFF7EAF80446374B30
:102DF0001B6813F0007F47D0FFF7E2F8001B0228A2
:102E0000F5D9032059E0314AD36923F08053D361C7
:102E1000DCE72F4B00221A66FFF7D2F805462B4B52
:102E20001B6813F0007F06D0FFF7CAF8401B02288A
:102E3000F5D9032041E0236AB3F5803F1AD0234936
:102E40004B6823F47413226A606A024313434B6095
:102E50001F4B01221A66FFF7B3F804461B4B1B6891
:102E600013F0007F0ED1FFF7ABF8001B0228F5D955
:102E7000032022E0154A536823F40033A1680B4372
:102E80005360DCE7002018E0002016E0012B16D08C
:102E90000E4B5B6803F48031226A914211D103F436
:102EA0007013626A93420ED1002006E00120704741
:102EB000012002E0012000E0002002B070BD0120EE
:102EC000FBE70120F9E70120F7E700BF001002400F
:102ED000000042420F4B5B6803F00C02082A01D04D
:102EE0000D487047C3F383420C49885C13F4803F5C
:102EF0000BD0084B5B68C3F34043094AD35C064AD6
:102F000002FB00F0B0FBF3F07047064B03FB00F050
:102F1000704700BF0010024000127A002CB3000876
:102F20003CB3000800093D00002800F0A08070B507
:102F30000D460446524B1B6803F007038B420BD22D
:102F40004F4A136823F007030B431360136803F021
:102F500007038B4240F08D80236813F0020F17D0D7
:102F600013F0040F04D0474A536843F4E0635360FE
:102F7000236813F0080F04D0424A536843F46053A7
:102F80005360404A536823F0F003A1680B43536039
:102F9000236813F0010F31D06368012B20D0022B7E
:102FA00025D0384A126812F0020F64D035494A68B9
:102FB00022F0030213434B60FFF702F80646314B41
:102FC0005B6803F00C036268B3EB820F16D0FEF768
:102FD000F7FF801B41F288339842F0D9032045E087
:102FE000284A126812F4003FE0D101203EE0254A51
:102FF000126812F0007FD9D1012037E0204B1B6806
:1030000003F00703AB420AD91D4A136823F00703F4
:103010002B431360136803F00703AB422DD12368E1
:1030200013F0040F06D0174A536823F4E063E168F5
:103030000B435360236813F0080F07D0114A5368FD
:1030400023F46053216943EAC1035360FFF742FF51
:103050000C4B5B68C3F303130B4AD35CD8400B4B98
:1030600018600B4B1868FEF767FF002070BD012049
:1030700070470120FAE70120F8E70120F6E700BFDA
:10308000002002400010024014B30008000000209D
:1030900008000020014B1868704700BF00000020A6
:1030A00008B5FFF7F7FF044B5B68C3F30223034A3D
:1030B000D35CD84008BD00BF0010024024B3000814
:1030C00008B5FFF7E7FF044B5B68C3F3C223034A6D
:1030D000D35CD84008BD00BF0010024024B30008F4
:1030E00070B4036A026A22F00102026246688269D1
:1030F00022F073020C6844EA020523F002028B6896
:1031000013430D4CA04209D00B4CA0420DD0466099
:1031100085614A684263036270BC704723F008030C
:10312000CA68134323F00403EEE726F440764A69A5
:1031300032438E691643EAE7002C014030B4036A3B
:10314000026A22F4807202624568C26922F0730248
:103150000C68224323F400738C6843EA04230F4C69
:10316000A04209D00D4CA0420ED04560C2614A6811
:10317000C263036230BC704723F40063CC6843EA47
:10318000042323F48063EDE725F440554C6945EAB8
:1031900004158C6945EA0415E7E700BF002C0140DF
:1031A00030B4036A026A22F4805202624468C2693F
:1031B00022F4E6420D6842EA052223F400538D68AA
:1031C00043EA0533074DA84206D04460C2614A680D
:1031D0000264036230BC704724F480444D6944EAC1
:1031E0008514F2E7002C014010B4036A046A24F04D
:1031F00001040462846924F0F00C4CEA021223F00A
:103200000A030B438261036210BC704710B4036A67
:10321000046A24F010040462846924F4704C4CEABB
:10322000023223F0A00343EA01138261036210BC5F
:103230007047836823F070030B4343F007038360F8
:103240007047000090F83D30DBB2012B27D10223FC
:1032500080F83D300268D36843F00103D36003680F
:10326000114A934210D0B3F1804F0DD0A2F59432A1
:10327000934209D002F58062934205D01A6842F069
:1032800001021A60002070479A6802F00702062ABD
:1032900007D01A6842F001021A600020704701202E
:1032A00070470020704700BF002C014070477047F6
:1032B00070477047704710B5044603681A6912F0EA
:1032C000020F11D0DA6812F0020F0DD06FF0020277
:1032D0001A610123037703689B6913F0030F70D011
:1032E000FFF7E6FF0023237723681A6912F0040F23
:1032F00012D0DA6812F0040F0ED06FF004021A61D7
:103300000223237723689B6913F4407F5FD0204614
:10331000FFF7CEFF0023237723681A6912F0080F06
:1033200012D0DA6812F0080F0ED06FF008021A619E
:10333000042323772368DB6913F0030F4ED0204664
:10334000FFF7B6FF0023237723681A6912F0100FE6
:1033500012D0DA6812F0100F0ED06FF010021A615E
:10336000082323772368DB6913F4407F3DD0204690
:10337000FFF79EFF0023237723681A6912F0010FDD
:1033800003D0DA6812F0010F36D123681A6912F0FF
:10339000800F03D0DA6812F0800F34D123681A69E5
:1033A00012F0400F03D0DA6812F0400F32D12368D8
:1033B0001A6912F0200F03D0DA6812F0200F30D112
:1033C00010BDFFF774FF2046FFF773FF8AE7204622
:1033D000FFF76DFF2046FFF76CFF9BE72046FFF7E6
:1033E00066FF2046FFF765FFACE72046FFF75FFF6B
:1033F0002046FFF75EFFBDE76FF001021A6120462D
:10340000FEF748F8C1E76FF080021A61204600F02D
:10341000C2FAC3E76FF040021A612046FFF74AFF85
:10342000C5E76FF020021A61204600F0B3FAC7E743
:1034300003681B4A90420AD0B0F1804F07D0A2F532
:103440009432904203D002F58062904203D123F07F
:1034500070034A681343124A90420AD0B0F1804F79
:1034600007D0A2F59432904203D002F580629042D8
:1034700003D123F44073CA68134323F080034A69DD
:10348000134303608B68C3620B688362044B9842EA
:1034900002D00123436170470B690363F9E700BF62
:1034A000002C014040B310B5044690F83D30F3B114
:1034B000022384F83D30214651F8040BFFF7B8FF92
:1034C000012384F8463084F83E3084F83F3084F895
:1034D000403084F8413084F8423084F8433084F836
:1034E000443084F8453084F83D30002010BD80F829
:1034F0003C30FEF72FFBDBE70120704740B310B5EF
:10350000044690F83D30F3B1022384F83D30214663
:1035100051F8040BFFF78CFF012384F8463084F840
:103520003E3084F83F3084F8403084F8413084F8ED
:10353000423084F8433084F8443084F8453084F8CD
:103540003D30002010BD80F83C30FFF7AFFEDBE7D8
:103550000120704730B4036A026A22F0100202624E
:103560004468826922F4E6420D6842EA052223F0AB
:1035700020038D6843EA05130E4DA84209D00D4D76
:10358000A8420ED0446082614A688263036230BC04
:10359000704723F08003CD6843EA051323F040030E
:1035A000EDE724F440644D6944EA85048D6944EAFA
:1035B0008504E7E7002C014038B590F83C30012B3A
:1035C00066D004460D46012380F83C300C2A5AD8B8
:1035D000DFE802F0075959591B59595930595959BF
:1035E00044000068FFF77CFD2268936943F00803FC
:1035F00093612268936923F00403936122689369BD
:1036000029690B43936100203EE00068FFF7A2FFA9
:103610002268936943F4006393612268936923F4F9
:103620008063936122689369296943EA0123936166
:10363000002029E00068FFF781FD2268D36943F08C
:103640000803D3612268D36923F00403D36122689D
:10365000D36929690B43D361002015E00068FFF7A7
:103660009FFD2268D36943F40063D3612268D36964
:1036700023F48063D3612268D369296943EA012373
:10368000D361002000E00120002384F83C3038BDE5
:103690000220FCE710B4846824F47F4C42EA032241
:1036A0000A4342EA0C02826010BC704790F83C303A
:1036B000012B78D010B50446012380F83C3002235A
:1036C00080F83D300268936823F47F4323F077034A
:1036D00093600B68602B4CD029D8402B54D00CD968
:1036E000502B22D1CA6849680068FFF77DFD502140
:1036F0002068FFF79EFD002005E0202B0DD009D9A2
:10370000302B0AD00120012384F83D30002384F8B7
:103710003C3010BD0BB1102B05D119462068FFF7C6
:1037200088FD0020EFE70120EDE70120EBE7B3F58E
:10373000805F34D0B3F5005F0CD1CB684A688968EC
:103740000068FFF7A7FF2268936843F48043936003
:103750000020D8E7702B24D1CB684A6889680068BC
:10376000FFF798FF2268936843F077039360002087
:10377000C9E7CA6849680068FFF748FD602120680A
:10378000FFF757FD0020BEE7CA6849680068FFF7E9
:103790002BFD40212068FFF74CFD0020B3E70020FF
:1037A000B1E70120AFE70220704701F01F010123BC
:1037B00003FA01FC036A23EA0C030362036A02FAB8
:1037C00001F10B430362704710B50446084651BB34
:1037D00094F83E30DBB2013B18BF0123002B5BD1D4
:1037E000002839D1022384F83E30012201462068A6
:1037F000FFF7DBFF23682A4A93423DD02368284A1B
:1038000093423ED0B3F1804F3BD0A2F59432934225
:1038100037D002F58062934233D01A6842F0010239
:103820001A60002039E0042908D008290DD094F846
:103830004130DBB2013B18BF0123CFE794F83F30A2
:10384000DBB2013B18BF0123C8E794F84030DBB27C
:10385000013B18BF0123C1E7042805D0082807D081
:10386000022384F84130C0E7022384F83F30BCE7EC
:10387000022384F84030B8E75A6C42F400425A649C
:10388000BCE79A6802F00702062A07D01A6842F0DD
:1038900001021A60002000E0012010BD0020FCE7BA
:1038A000002C014038B504460D4600220068FFF7A1
:1038B0007CFF23681B4A934214D02368196A41F2A3
:1038C0001112114208D1196A40F24442114203D147
:1038D0001A6822F001021A609DB9012384F83E3073
:1038E000002038BD196A41F211121142E5D1196A5E
:1038F00040F244421142E0D15A6C22F400425A6430
:10390000DBE7042D05D0082D07D0012384F84130D2
:10391000E6E7012384F83F30E2E7012384F84030F2
:10392000DEE700BF002C014090F83C30012B2CD08A
:1039300010B4012380F83C30022380F83D30036846
:103940005A689C6822F0700C0A6842EA0C025A60BD
:1039500003680F4A93420AD0B3F1804F07D0A2F513
:103960009432934203D002F58062934204D124F052
:1039700080044A6814439C60012380F83D30002392
:1039800080F83C30184610BC70470220704700BFDA
:10399000002C014070477047026802F10C0353E8A5
:1039A000003F23F0C0030C3242E800310029F3D17C
:1039B000202380F841307047026802F10C0353E87D
:1039C000003F23F490730C3242E800310029F3D118
:1039D000026802F1140353E8003F23F0010314329C
:1039E00042E800310029F3D1036B012B05D02023DD
:1039F00080F84230002303637047026802F10C0331
:103A000053E8003F23F010030C3242E80031002954
:103A1000F3D1ECE790F84130DBB2212B01D002204A
:103A200070478368B3F5805F17D0036A5A1C02623F
:103A30001A7803685A60C38C9BB2013B9BB2C38463
:103A40004BB90268D36823F08003D3600268D3685F
:103A500043F04003D360002070470369002BE4D19A
:103A6000036A1B880268C3F308035360036A0233C6
:103A70000362E0E710B504460268136923F440537B
:103A8000C1680B43136183680269134342691A4397
:103A90000168CB6823F4B05323F00C031343CB60CD
:103AA0000268536923F4407381690B4353610268D0
:103AB000134B9A4220D0FFF7F3FA024602EB820240
:103AC00002EB820263689B00B2FBF3F20D48A0FB9D
:103AD00002314909642303FB11231B013233A0FB8C
:103AE00003235B0903F0F00202EB011203F00F0362
:103AF000216813448B6010BDFFF7E2FA0246DDE750
:103B0000003801401F85EB512DE9F84305460F466B
:103B100016469946DDF820802C68246837EA0403AD
:103B20000CBF4FF0010C4FF0000CB4452DD1B8F193
:103B3000FF3FF1D0B8F1000F05D0FEF741FAA0EB3E
:103B400009004045E8D92A6802F10C0353E8003F18
:103B500023F4D0730C3242E800310029F3D12A68F3
:103B600002F1140353E8003F23F00103143242E84A
:103B700000310029F3D1202385F8413085F8423007
:103B8000002385F84030032000E00020BDE8F883E2
:103B900060B310B5044690F8413013B3242384F881
:103BA00041302268D36823F40053D3602046FFF7E6
:103BB00061FF2268136923F49043136122685369FB
:103BC00023F02A0353612268D36843F40053D3607F
:103BD00000206064202384F8413084F84230606320
:103BE00010BD80F84030FEF721F9D7E7012070477B
:103BF0002DE9F04182B01E4690F84130DBB2202B17
:103C00004BD104460D46904600294AD00AB90120FE
:103C100044E000234364212380F84130FEF7D0F9CB
:103C20000746A4F82480A4F82680A368B3F5805F33
:103C300002D04FF000080FE02369FBB14FF00008FD
:103C40000AE038F8023B2268C3F308035360E28CB1
:103C500092B2013A92B2E284E38C9BB28BB10096AD
:103C60003B46002280212046FFF74EFFD8B9002DA9
:103C7000E7D015F8012B23685A60E8E7A84600252D
:103C8000EAE700963B46002240212046FFF73CFF32
:103C900058B9202384F8413000E0022002B0BDE88A
:103CA000F0810120FAE70320F8E70320F6E72DE989
:103CB000F04182B01E4690F84230DBB2202B53D147
:103CC00004460D469046002952D00AB901204CE026
:103CD00000234364222280F842200363FEF770F938
:103CE0000746A4F82C80A4F82E80A368B3F5805F63
:103CF00002D04FF0000817E0236913B14FF000081D
:103D000012E0A84600250FE023685B68C3F30803B0
:103D100028F8023B03E023685B682B700135E28DD5
:103D200092B2013A92B2E285E38D9BB2BBB10096AA
:103D30003B46002220212046FFF7E6FED0B9002DA9
:103D4000E2D0A368B3F5805FE5D013B92369002BF7
:103D5000E1D023685B6803F07F032B70DEE720234C
:103D600084F84230002000E0022002B0BDE8F0817B
:103D70000120FAE70320F8E710B5044603685A6902
:103D800090F84130DBB2212B0AD023685A6902F047
:103D9000400294F84230DBB2222B19D0002010BD33
:103DA00002F08002002AF0D0226802F1140353E8E6
:103DB000003F23F08003143242E800310029F3D1A0
:103DC000A06B08B1FEF7F5F92046FFF7E5FDDCE74B
:103DD000002AE3D0226802F1140353E8003F23F0E5
:103DE0004003143242E800310029F3D1E06B08B1FE
:103DF000FEF7DFF92046FFF7DFFDCFE7704708B594
:103E00000168CA6822F04002CA60202280F841207E
:103E1000FFF7F4FF002008BD7047704708B5406AFF
:103E200001234363036B012B00D108BDFFF7F5FFAE
:103E3000FBE7704710B5446A23685A6994F841302B
:103E4000DBB2212B10D023685A6902F0400294F8AB
:103E50004230DBB2222B11D0636C43F01003636459
:103E60002046FFF7E6FF10BD02F08002002AEAD0EC
:103E70000023E3842046FFF78FFDE4E7002AEBD020
:103E80000023E3852046FFF797FDE5E708B5406A84
:103E90000023C385C384FFF7CCFF08BD90F84230F0
:103EA000DBB2222B69D18368B3F5805F4FD0826A81
:103EB000B3F5805F04D0002B56D10369002B53D19A
:103EC00003685B681370836A01338362C38D9BB29E
:103ED000013B9BB2C385002B51D100B583B0026872
:103EE000D36823F02003D3600268D36823F480737F
:103EF000D3600268536923F001035361202380F8E3
:103F0000423000234363036B012B33D1002303634F
:103F1000026802F10C0353E8003F23F010030C3257
:103F200042E800310029F3D103681A6812F0100F3B
:103F300006D0002201921A6801925B680193019BEE
:103F4000818DFDF7E7FA002003B05DF804FB0269FC
:103F5000002AACD1826A03685B68C3F3080313804C
:103F6000836A02338362B1E703685B6803F07F030F
:103F70001370A8E7FFF750FFE5E702207047002025
:103F80007047000030B583B0044602681368D068FB
:103F9000516913F00F0505D113F0200F02D010F076
:103FA000200F19D12DB111F0010119D110F4907F1A
:103FB00016D1216B01297DD013F0800F03D010F0B2
:103FC000800F40F0188113F0400F03D010F0400F25
:103FD00040F0158103B030BD2046FFF75FFFF9E7E1
:103FE00013F0010F06D010F4807F03D0626C42F012
:103FF0000102626413F0040F04D019B1626C42F044
:104000000202626413F0020F04D019B1626C42F034
:104010000402626413F0080F07D010F0200F00D1E3
:1040200019B1626C42F008026264626C002AD1D05D
:1040300013F0200F02D010F0200F29D123685B6904
:1040400003F04003626C12F0080F00D163B3204606
:10405000FFF7B2FC23685B6913F0400F20D02268A1
:1040600002F1140353E8003F23F04003143242E806
:1040700000310029F3D1E36B73B1634A5A63E06BFB
:10408000FEF7BAF80028A5D0E06B436B9847A1E78C
:104090002046FFF703FFD1E72046FFF7CAFE99E766
:1040A0002046FFF7C6FE95E72046FFF7C2FE002335
:1040B00063648FE713F0100F3FF47EAF10F0100F22
:1040C0003FF47AAF0023019313680193536801937F
:1040D000019B536913F0400F51D0E26B13685B688A
:1040E0009BB2002B3FF476AFA18D99427FF672AF61
:1040F000E3859369202B37D0226802F10C0353E843
:10410000003F23F480730C3242E800310029F3D1E0
:10411000226802F1140353E8003F23F00103143234
:1041200042E800310029F3D1226802F1140353E878
:10413000003F23F04003143242E800310029F3D15C
:10414000202384F8423000232363226802F10C0309
:1041500053E8003F23F010030C3242E800310029FD
:10416000F3D1E06BFEF725F802236363A18DE38DA5
:104170009BB2C91A89B22046FDF7CCF92AE7A18D76
:10418000E38D9BB2C91A89B2E38D9BB2002B3FF439
:1041900021AF00293FF41EAF226802F10C0353E85F
:1041A000003F23F490730C3242E800300028F3D132
:1041B000226802F1140353E8003F23F00103143294
:1041C00042E800300028F3D1202384F84230002355
:1041D0002363226802F10C0353E8003F23F010032D
:1041E0000C3242E800300028F3D1022363632046FA
:1041F000FDF790F9EEE62046FFF70CFCEAE62046D4
:10420000FFF7FDFDE6E600BF8D3E000808B503465A
:10421000406A1B681B6813F0200F2BD10023C38555
:10422000026802F10C0353E8003F23F480730C3260
:1042300042E800310029F3D1026802F1140353E887
:10424000003F23F00103143242E800310029F3D18A
:10425000026802F1140353E8003F23F040031432D4
:1042600042E800310029F3D1202380F84230036B6B
:10427000012B07D000234363036B012B0FD0FFF703
:10428000CBFD08BD026802F10C0353E8003F23F0A8
:1042900010030C3242E800310029F3D1EAE7818DA6
:1042A000FDF738F9EDE7000030B583B0044613465A
:1042B0008162828500254564222280F84220C26BFB
:1042C0001F489062E26B1F48D062E26B1E48106389
:1042D000E26B556320680A46011DE06BFDF72EFF77
:1042E000019523681A6801925B680193019B236919
:1042F0005BB1226802F10C0353E8003F43F4807382
:104300000C3242E800310029F3D1226802F1140393
:1043100053E8003F43F00103143242E80031002922
:10432000F3D1226802F1140353E8003F43F0400345
:10433000143242E800310029F3D1002003B030BD2F
:104340000D4200081D3E0008353E000890F842303E
:10435000DBB2202B29D110B582B0044639B312B993
:10436000012002B010BD0123036300234363FFF764
:104370009BFF0028F5D1236B012B01D00120F0E732
:104380000023019323681A6801925B680193019BE3
:10439000226802F10C0353E8003F43F010030C3293
:1043A00042E800310029F3D1DBE702207047012009
:1043B000D7E70023934212D200B590F800E091F8BD
:1043C00000C0E64505D1013001310133DBB2934233
:1043D000F3D393422CBF002001205DF804FB9342ED
:1043E0002CBF00200120704700EBC000C0004FF040
:1043F000E023586100229A6105221A614FF0E02300
:104400001B6913F4803FF9D04FF0E02304221A61B6
:10441000704710B504E04FF47A70FFF7E5FF2046CF
:10442000441E0028F7D110BDF0B587B0614B9A69E2
:1044300042F004029A619A6902F004020092009A22
:104440009A6942F008029A619B6903F0080301939C
:10445000019B01250495002403940326059602235D
:104460000293554F02A93846FEF718F904950394B4
:1044700005960423029302A93846FEF70FF9049526
:1044800003940596082302930DEB03013846FEF7CB
:1044900005F90495039405961023029302A9384662
:1044A000FEF7FCF80495039405962023029302A9D5
:1044B0003846FEF7F3F804950394059640230293DB
:1044C00002A93846FEF7EAF804950394059680237E
:1044D000029302A93846FEF7E1F804950394059685
:1044E000029502A93548FEF7D9F8234608E0344A78
:1044F000022122F8331002EBC3022F49516001332D
:10450000072B54DC072BFAD801A252F823F000BF86
:10451000EF440008314500084345000855450008B0
:1045200067450008794500088B4500089D4500084F
:10453000234A042122F8331002EBC3021E495160C2
:10454000DDE71F4A082122F8331002EBC3021A49A3
:104550005160D4E71A4A102122F8331002EBC3024B
:1045600015495160CBE7164A202122F8331002EB9F
:10457000C30211495160C2E7114A402122F83310A9
:1045800002EBC3020C495160B9E70D4A802122F8C1
:10459000331002EBC30208495160B0E7084A012119
:1045A00022F8331002EBC30204495160A7E707B0B9
:1045B000F0BD00BF0010024000080140000C0140A7
:1045C000280C002070B5044601884068FEF778F991
:1045D00010B10126304670BD0A20FFF71AFF21886E
:1045E0006068FEF76DF9064608B10126F2E70A2079
:1045F000FFF70FFF002500E0013521886068FEF716
:104600005FF90028E6D1024B9D42F5D90646E1E765
:104610008F5F010010B584B0012302930024019440
:10462000032303930AE0074B33F83420009203EB93
:10463000C40369465868FEF731F80134032CF2DDF3
:1046400004B010BD280C002070B584B00024029482
:10465000112301930323039310E00A4D35F83430FE
:10466000009305EBC40669467068FEF717F8002250
:1046700035F834107068FEF72AF90134032CECDDAC
:1046800004B070BD280C002010B584B00123029343
:1046900000240194032303930BE0221D074B33F8FE
:1046A0003210009103EBC20369465868FDF7F6FF2C
:1046B0000134032CF1DD04B010BD00BF280C002034
:1046C000F0B585B0002402941123019303230393D2
:1046D00011E0261D0A4D35F83630009305EBC6076C
:1046E00069467868FDF7DAFF002235F836107868F9
:1046F000FEF7EDF80134032CEBDD05B0F0BD00BF93
:10470000280C002038B5FFF785FFFFF7D9FF0024FC
:1047100006E0043D104B03EB8404605D1AE00134B5
:10472000032C16DC0D4800EBC400FFF74BFF0028FC
:10473000F5D1FFF7A9FFFFF787FF0425072DEEDC72
:10474000064800EBC500FFF73DFF0028E1D001352A
:10475000F4E7FF2038BD00BF0C000020280C00202B
:1047600008B54378DBB2072B0AD8DFE803F0282E20
:10477000040A10161C22184A0121042000F0B8F97E
:1047800008BD164A0121042000F0B2F9F8E7144AE6
:104790000121042000F0ACF9F2E7124A01210420C3
:1047A00000F0A6F9ECE7104A0121042000F0A0F97E
:1047B000E6E70E4A0121042000F09AF9E0E70C4AEE
:1047C0000121042000F094F9DAE70A4A01210420CB
:1047D00000F08EF9D4E700BF40B3000848B30008EA
:1047E00050B3000858B3000860B3000868B300086D
:1047F00070B3000878B3000800B587B001230293B6
:104800000493002301930390FDF72AFE05A901A854
:10481000FDF7F2FE20B9FDF73DFE07B05DF804FBA1
:104820000599024800F03CFBF5E700BFACB3000877
:10483000007870472DE9F041ADF5806D80460F4658
:1048400015461E46002400944FF47F72214601A8AD
:1048500000F0D4FA05E06019FFF7EAFF0DF8040054
:104860000134B4F5806FF6DB2846FFF7C5FF32460A
:1048700005E0931B18F803300DF802300132F319EC
:104880009342F6D8FDF7ECFD002400E00234B4F5C5
:10489000806F15DA631C1DF803201DF8043043EA0D
:1048A0000222002361190120FDF732FE0028EDD01D
:1048B00004EBD47105EB6101044800F0F1FAE5E77F
:1048C000FDF7E8FD0DF5806DBDE8F081CCB3000883
:1048D000F8B505460E461746002405E0E019FFF737
:1048E000A7FF05F8010B0134B442F7D3F8BD00006F
:1048F0002DE9F041ADF5806D80460E4617464FF428
:1049000080620021684600F079FA3446002304E012
:1049100034F8025B2DF813500133B3F5007FF7DB59
:104920003046FFF769FF2DF81780FDF799FD3546F2
:10493000002401E002350134B4F5007F0EDA3DF8C1
:104940001420002329460120FDF7E2FD0028F1D0C4
:1049500006EB4401044800F0A3FAEBE7FDF79AFDEB
:104960000DF5806DBDE8F081CCB30008008880B201
:104970007047000000B583B00C4B9A6942F0080202
:104980009A619B6903F008030193019B0848094B56
:10499000036043604FF4807303814FF400734381DD
:1049A00000F00EF903B05DF804FB00BF00100240F8
:1049B000680C0020000C014038B505460E4C20461E
:1049C00000F025F97821204600F04AF9204600F051
:1049D00062F90021204600F043F9204600F05BF91F
:1049E0002946204600F03CF9204600F054F92046C4
:1049F00000F024F938BD00BF680C002038B505462A
:104A00000E4C204600F003F97821204600F028F9EA
:104A1000204600F040F94021204600F021F92046D0
:104A200000F039F92946204600F01AF9204600F036
:104A300032F9204600F002F938BD00BF680C0020B2
:104A400010B50C4640F0B000FFF7B6FF200940F06B
:104A50001000FFF7B1FF04F00F00FFF7ADFF10BD2E
:104A600038B5002509E00020FFF7C8FF0134E4B2A3
:104A700014F0800FF7D00135EDB2072D05D80021D5
:104A80002846FFF7DDFF0024F2E738BDF8B51546EC
:104A9000461E7600F6B24F1EFF00FFB23946304682
:104AA000FFF7CEFF002409E0A5F120030F4A02EB37
:104AB0000313185DFFF7A2FF0134E4B2072CF3D90A
:104AC000701C3946C0B2FFF7BBFF00240BE0A5F114
:104AD000200304F10802054901EB0313985CFFF77A
:104AE0008DFF0134E4B2072CF1D9F8BDF8B300080A
:104AF000F8B507460E461546002406E0A119C9B2CE
:104B00003846FFF7C3FF0134E4B22A5D002AF5D12D
:104B1000F8BD08B5002204E00133B3F57A7FFBD37A
:104B20000132B2F57A7F01D20023F6E7FFF722FFC8
:104B3000AE20FFF741FFD520FFF73EFF8020FFF7B3
:104B40003BFFA820FFF738FF3F20FFF735FFD320BA
:104B5000FFF732FF0020FFF72FFF4020FFF72CFF69
:104B6000A120FFF729FFC820FFF726FFDA20FFF773
:104B700023FF1220FFF720FF8120FFF71DFFFF20FA
:104B8000FFF71AFFD920FFF717FFF120FFF714FFF7
:104B9000DB20FFF711FF3020FFF70EFFA420FFF707
:104BA0000BFFA620FFF708FF8D20FFF705FF14205D
:104BB000FFF702FFAF20FFF7FFFEFFF751FF08BD31
:104BC000F0B585B004460025009501950295039542
:104BD000038900931127019703260396694600680D
:104BE000FDF75CFD63890093019702950396694682
:104BF0006068FDF753FD012261896068FDF767FE7B
:104C0000012221892068FDF762FE05B0F0BD10B5D4
:104C10000446012241894068FDF759FE012221899D
:104C20002068FDF754FE002261896068FDF74FFEA1
:104C3000002221892068FDF74AFE10BD10B5044608
:104C4000002241894068FDF742FE01222189206847
:104C5000FDF73DFE012261896068FDF738FE10BD59
:104C600070B504460E46002512E080222A413240EB
:104C700061896068FDF72BFE012221892068FDF71C
:104C800026FE002221892068FDF721FE0135EDB2C4
:104C9000072DEAD970BD38B5044601224189406824
:104CA000FDF715FE012221892068FDF710FE6189BC
:104CB0006068FDF705FE0546002221892068FDF7A2
:104CC00006FE284638BD000008B5054B1860054BA8
:104CD0001868002302221946806800F04BF908BDCD
:104CE000740C002030000020022801D801207047F9
:104CF00008B500F059F809230360002008BD000042
:104D000010B5013801280AD814464FF0FF3392B28B
:104D100007480068FEF76CFF40B9204610BD00F060
:104D200043F8092303604FF0FF30F7E70520F5E76C
:104D3000740C0020022801D80020704708B500F04C
:104D400033F8092303604FF0FF3008BD08B500F0C9
:104D50002BF8092303604FF0FF3008BD08B548B9B0
:104D60004FF0FF33012208480068FEF7A0FF40B96A
:104D7000012008BD00F018F8092303604FF0FF3050
:104D8000F7E70520F5E700BF740C002008B50228FE
:104D900004D84FF400534B60002008BD00F004F825
:104DA00009230360F8E70000014B1868704700BF53
:104DB0003000002070B50D4E0D4D761BB61006D09C
:104DC000002455F8043B01349847A642F9D1094E16
:104DD000094D06F075F9761BB61006D0002455F87B
:104DE000043B01349847A642F9D170BDF0BD0008DC
:104DF000F0BD0008F8BD0008F0BD0008830730B51D
:104E000048D0541E002A3FD00346CAB201E0013CFC
:104E10003AD303F8012B9D07F9D1032C2DD9CDB23C
:104E200045EA05250F2C45EA054536D9A4F11002BF
:104E300022F00F0C03F1200EE6444FEA121C03F19E
:104E4000100242E9045542E9025510327245F8D188
:104E50000CF1010214F00C0F03EB021204F00F0C22
:104E600013D0ACF1040323F003030433134442F8DA
:104E7000045B9342FBD10CF003042CB1CAB21C4476
:104E800003F8012B9C42FBD130BD64461346002C35
:104E9000F4D1F9E703461446BFE71A46A446E0E713
:104EA0000FB400B5074A83B004AB106853F8042B65
:104EB0008168019300F064F903B05DF804EB04B07D
:104EC000704700BF3000002030B5054689B0084665
:104ED0000C4600F027F901210223214A049406928E
:104EE000AA6B04AC0590084401940791AC68029346
:104EF000039022B3636E13F0010FB4F90C309AB231
:104F000001D1980525D5910406D4626E43F400536F
:104F100022F40052A3816266284601AA214603F0CA
:104F200053FA636E002814BF4FF0FF350A25DA07E5
:104F300002D4A3899B0506D5284609B030BD284672
:104F400003F04AF8D6E7A06D03F0E4FB284609B069
:104F500030BDA06D03F0DCFBB4F90C309AB2D2E79F
:104F6000ECB90008024B01461868FFF7ADBF00BF5F
:104F7000300000202DE9F043694C0E46D4F8008043
:104F8000174604461D4683B0B8F1000F03D0D8F889
:104F90003830002B77D0022F05D0012F00F2AC80E3
:104FA000002DC0F2A980636EDA0752D52146404633
:104FB00002F0DEFF216B41B104F14003994202D0BF
:104FC000404603F001F9002323630023B4F90CC029
:104FD000A3611CF0800F636064D12CF44A6C2CF048
:104FE000030C022FA4F80CC06AD001AB2146404646
:104FF0006A4603F001FCA3891843A081002D2FD03D
:10500000002E2ED0D8F83830002B38D0009BC4E9C1
:105010000465AB42B4F90C3026601CBF43F4006356
:10502000A381012F04BF43F00103A3819AB213F0BF
:1050300008032CD0D1075DD500216D42A561656EB6
:10504000A16015F0010527D00025284603B0BDE872
:10505000F083A3899B05A9D4A06D03F059FBA5E7B4
:10506000009D284603F0F8FB0646002847D0A38998
:1050700043F08003A381D8F83830002BC6D14046D6
:1050800002F0AAFFC2E7404602F0A6FF83E7A36052
:10509000656E15F00105D7D1930524D5284603B0D8
:1050A000BDE8F0834046216903F08EF8B4F90CC0E6
:1050B000022F2CF44A6C2CF0030CA4F80CC094D1F1
:1050C00000250021012204F1430323602361636E64
:1050D0004CF0020CD807A4F80CC0A1606261DDD4CA
:1050E0001CF4007FDAD1A06D03F014FB284603B056
:1050F000BDE8F083A560CBE74FF0FF35CEE7DDF8E4
:105100000090A94504D0484603F0A6FB064620B906
:105110004FF0FF35B4F90CC0D3E74D46A7E700BF09
:105120003000002020F0030110F00300C0F1000067
:1051300051F8043B00F1040C4FEACC0C6FF0000274
:105140001CBF22FA0CF213434FF0010C4CEA0C2C5A
:105150004CEA0C4CA3EB0C0222EA030212EACC123A
:1051600004BF51F8043B0430F4D0C2F1000102EA5C
:105170000102B2FA82F2C2F11F0200EBD2007047C4
:105180002DE9F04FD5B01C46914607910546099090
:1051900003F0B6FA02680E9410461792FFF7C2FFAA
:1051A00016901DB1AB6B002B00F01D82079A536E59
:1051B000DD0740F12D81B2F90C2091B28F0409D4A2
:1051C000079B42F400529A8191B21A465B6E23F417
:1051D000005353660E0740F1C080079B1B69002BEC
:1051E00000F0BB8001F01A030A2B00F0C4800024F9
:1051F0002BAB224698464D46CDE92944289312947C
:1052000000230024CDE914342B78CDE91922CDE90F
:105210001B2218920B92002B00F08F81AA4604E00B
:105220001AF8013F002B00F0BB80252BF8D1BAEB18
:10523000050640F0B9809AF80030002B00F07D811F
:1052400000234FF0FF324FF02B0920241F469AF81D
:10525000016008920AF1010A8DF883300A930AF17D
:10526000010AA6F120035A2B00F2E180DFE813F0D7
:105270000503DF00DF000003DF00DF00DF00DE02E8
:10528000DF00DF006A006E02DF0055027802DF00F7
:1052900073025B005B005B005B005B005B005B001C
:1052A0005B005B00DF00DF00DF00DF00DF00DF000E
:1052B000DF006C01DF00EA01C4016C016C016C01CC
:1052C000DF00DF00DF00DF00D002DF00DF002302AD
:1052D000DF00DF00DF00F801DF009202DF00DF0007
:1052E0008707DF00DF00DF00DF00DF00DF00DF0017
:1052F000DF006C01DF00EA01C6016C016C016C018A
:10530000B602C601BF01DF00C302DF005A02250258
:10531000A402BF01DF00F80172008407DF00DF0094
:105320006507DF0072000022A6F130031AF8016B56
:1053300002EB820203EB4202A6F13003092BF5D9FE
:105340000A928EE70E9B53F8042B002A0A920E93C2
:10535000C0F2E0819AF8006081E7079D099829462C
:1053600001F0FCFC002841F04D83A98901F01A03EB
:105370000A2B7FF43CAF079AB2F90E30002BFFF6F0
:1053800036AF536ED80702D4890541F148812346D0
:105390004A460799099855B0BDE8F04F01F09CBC0A
:1053A000BAEB050600F0C9802A9BC8E900563344D1
:1053B0002A93299B0133072B299305DC08F1080860
:1053C0000B9B33440B9336E70799099828AA04F0FE
:1053D00059FC80B90DF1AC08F2E70799099828AAA1
:1053E00004F050FC002800F099800D9B1BB1194679
:1053F000099802F0E9FE079A536ED90740F1E88058
:1054000093895B0601F10A830B9855B0BDE8F08FD4
:10541000079BB3F90C20900591B23FF5CFAE1D4626
:10542000986D03F075F9B5F90C2091B2C6E6002E1F
:1054300000F08380012300228DF8EC6006933BADE1
:105440008DF883200C930D9208920F921392109274
:1054500017F0020302D006990231069117F0840B6F
:1054600007D10A990698A1EB0009B9F1000F00F3E2
:1054700090832A9C82B10122C8F80420299A013421
:1054800001320DF18301072A2A942992C8F80010ED
:1054900000F3D88308F108087BB10223C8F8043070
:1054A000299B0234013321AA072B2A942993C8F897
:1054B000002000F3D58308F10808BBF1800F00F04D
:1054C0008882089B0C9AA3EB020BBBF1000F00F340
:1054D000CB82FB0500F11F820C9BC8F800501C44D6
:1054E000C8F80430299B2A940133072B299300F331
:1054F000448308F10808780705D50A9B069A9D1A87
:10550000002D00F3B983DDE90A2306998A42ACBF76
:105510009B185B180B93002C7FF45FAF002329933B
:105520000D9B1BB10D99099802F04EFE55460DF1E9
:10553000AC082B78002B7FF471AE2A9B002B41F036
:1055400010820023299356E70E9B073323F00702AE
:10555000F2E80234CDE91434DDE9143424F00044D7
:10556000994618460E9221464FF0FF32AB4BFBF79F
:10557000BDFE002840F01885484621464FF0FF3216
:10558000A64BFBF795FE002840F00E85DDE91401DF
:1055900000220023FBF782FE002840F065879DF87B
:1055A0008320002103209E4D9E4B27F080070D9104
:1055B0000690472EC8BF1D4608910C900F9113917D
:1055C0001091002A3FF444AF069B013306933FE756
:1055D000079B9B899A053FF514AF079CA06D03F0CC
:1055E00099F8A3890DE7099802F0F6FCDEE59AF830
:1055F000006047F0200732E647F01007BA060E9B1E
:1056000040F16E84073323F007031A465B6852F8B3
:10561000084B99460E92002BC0F26F84089B013311
:1056200000F0FB8254EA090327F0800B40F0F68279
:10563000089B002B40F0F7825F46002354AD08938F
:105640000C933DE1012000220E9B069053F8041BB1
:105650003BAD8DF883208DF8EC100E930C90F2E6A4
:105660004FF000090E9C089B54F8045B8DF8839062
:10567000002D00F0A1855A1C00F0A5861A46494667
:10568000284603F09DFB0D90002801F050810D9BF2
:105690009DF883205B1B0C9323EAE373CDF82090E5
:1056A0000E940693CDF83490CDF83C90CDF84C9004
:1056B000CDF8409085E747F0100717F0200900F07B
:1056C000F2830E9B073323F00703D3F8049053F8BB
:1056D000084B0E93002327F4806B00228DF8832063
:1056E000089A511C00F0D48054EA09012BF080077D
:1056F00040F0CD80002A40F00486002B9DD11BF0A5
:1057000001030C9300F0308430230DF24F158DF817
:105710004F31D5E00A9B5B420A939AF8006047F04C
:1057200004079CE5BD0600F1FD84FC0600F1EE8552
:10573000780600F1B286B90540F1E8850E9B0B9919
:1057400053F8042B554611700E93F2E69AF8006058
:105750008DF8839083E59AF8006047F080077EE536
:10576000524612F8016B2A2E01F08D82A6F1300309
:10577000092B924698BF002201F2E5801AF8016BCE
:1057800002EB820203EB4202A6F13003092BF5D9AA
:10579000089266E547F0100B1BF0200900F091839A
:1057A0000E9B073323F007031A4652F8084BD3F831
:1057B00004900E92012390E7302278260E9B8DF8FC
:1057C000842053F8044B184A0E934FF0000902232B
:1057D00047F0020B8DF8856018927EE79AF800601A
:1057E000682E03BF9AF8016047F400770AF1010AB6
:1057F00047F0400733E59AF800606C2E03BF9AF833
:10580000016047F020070AF1010A47F0100726E57A
:105810009AF8006047F0080721E500BFFFFFEF7F1F
:10582000F0B90008F4B9000800BA0008099E304633
:1058300002F066FF436818461B93FFF773FC0346AC
:1058400030461C931E4602F05BFF83681993002EBE
:105850003FF480AD199B002B3FF47CAD199B1B7866
:10586000002B3FF477AD9AF8006047F48067F6E4C8
:105870009AF8006047F00107F1E49DF88330002BAF
:105880007FF468AD9AF800608DF88340E7E4BB468A
:10589000012B00F0C381022B54AD1FD1189A04F0E4
:1058A0000F03D35C240944EA09744FEA191905F877
:1058B000013D54EA0903F2D15F4654AB5B1B0C93E4
:1058C000089A0C9900238A42B8BF0A460D930692A3
:1058D0000F939DF883201393109372E604F007034F
:1058E000E40844EA49744FEAD909303354EA09011B
:1058F0002A4605F8013DF1D11BF0010FDCD0302B19
:10590000DAD03023023A05F8013C54AB9B1A5F46CB
:1059100015460C93D4E7652E40F3E980DDE91401C8
:1059200000220023FBF7B0FC002800F0E1810123F6
:10593000C8F80430299BC04A01330134072B2A944C
:105940002993C8F8002000F3BF8408F10808229BBF
:10595000129A934280F2DC82169B179A1C44C8E983
:105960000023299B2A940133072B299300F31784E2
:1059700008F10808129B5D1E002D7FF7BCAD102DAD
:1059800041F35D81DFF8B492224649461026B946BC
:10599000299B0F46DDF824B0079C05E008F10808B4
:1059A000103D102D40F39D8401331032072BC8E9C0
:1059B0000076CDE92932F1DD2146584628AA04F0C7
:1059C00061F900287FF411ADDDE929320DF1AC0851
:1059D000E6E70A9B069AA3EB020BBBF1000F7FF7E9
:1059E00070ADBBF1100F41F35280DFF85092414689
:1059F0002046A8464C461023299A079DDDF824909E
:105A000006E0ABF1100BBBF1100F01F1080119DD3D
:105A100001321030072AC1E90043CDE92920F0DD29
:105A20002946484628AA04F02DF900287FF4DDAC69
:105A3000DDE92920ABF1100BBBF1100F4FF0100383
:105A40002BA9E5DC4546A1468846044601325C4464
:105A5000072ACDE92924C8F80090C8F804B000F35B
:105A6000918308F108082CE5BBF1100F40F3E384A3
:105A7000DFF8C89141462046A8464C461023299A93
:105A8000079DDDF8249006E0ABF1100BBBF1100F81
:105A900001F1080119DD01321030072AC1E9004384
:105AA000CDE92920F0DD2946484628AA04F0EAF885
:105AB00000287FF49AACDDE92920ABF1100BBBF193
:105AC000100F4FF010032BA9E5DC4546A146884690
:105AD000044601325C44072ACDE92924C8F8009025
