:020000040800F2
:100000000050002099210008151C0008171C00084A
:10001000191C00081B1C00081D1C00080000000023
:100020000000000000000000000000001F1C00088D
:10003000211C000800000000231C0008251C0008EB
:10004000E1210008E1210008E1210008E121000888
:10005000E1210008E1210008E1210008E121000878
:10006000E1210008E1210008E12100082D1C000821
:10007000E1210008E12100083D1C0008E121000801
:10008000E1210008E1210008E1210008E121000848
:10009000E1210008E1210008E1210008E121000838
:1000A000E1210008E1210008E1210008E121000828
:1000B000E1210008E1210008E1210008E121000818
:1000C000E1210008E1210008E1210008E121000808
:1000D000E12100084D1C0008E1210008E121000891
:1000E000E1210008E1210008E121000800000000F2
:1000F0000000000000000000000000000000000000
:0C01000000000000000000005FF808F1A3
:10010C0010B5054C237833B9044B13B10448AFF345
:10011C0000800123237010BD3C040020000000006F
:10012C009447000808B5034B1BB103490348AFF3D0
:10013C00008008BD00000000400400209447000827
:10014C0081F0004102E000BF83F0004330B54FEA7C
:10015C0041044FEA430594EA050F08BF90EA020FE9
:10016C001FBF54EA000C55EA020C7FEA645C7FEA7C
:10017C00655C00F0E2804FEA5454D4EB5555B8BF9F
:10018C006D420CDD2C4480EA020281EA030382EA10
:10019C00000083EA010180EA020281EA0303362DA2
:1001AC0088BF30BD11F0004F4FEA01314FF4801C75
:1001BC004CEA113102D0404261EB410113F0004F87
:1001CC004FEA03334CEA133302D0524263EB43033E
:1001DC0094EA050F00F0A780A4F10104D5F1200EDC
:1001EC000DDB02FA0EFC22FA05F2801841F1000137
:1001FC0003FA0EF2801843FA05F359410EE0A5F10B
:10020C0020050EF1200E012A03FA0EFC28BF4CF03B
:10021C00020C43FA05F3C01851EBE37101F00045F1
:10022C0007D54FF0000EDCF1000C7EEB00006EEBFE
:10023C000101B1F5801F1BD3B1F5001F0CD3490888
:10024C005FEA30004FEA3C0C04F101044FEA4452DF
:10025C0012F5800F80F09A80BCF1004F08BF5FEA66
:10026C00500C50F1000041EB045141EA050130BD46
:10027C005FEA4C0C404141EB0101013C28BFB1F558
:10028C00801FE9D291F0000F04BF01460020B1FAA3
:10029C0081F308BF2033A3F10B03B3F120020CDA76
:1002AC000C3208DD02F1140CC2F10C0201FA0CF054
:1002BC0021FA02F10CE002F11402D8BFC2F1200CB9
:1002CC0001FA02F120FA0CFCDCBF41EA0C0190406F
:1002DC00E41AA2BF01EB0451294330BD6FEA0404B8
:1002EC001F3C1CDA0C340EDC04F11404C4F12002A3
:1002FC0020FA04F001FA02F340EA030021FA04F3B5
:10030C0045EA030130BDC4F10C04C4F1200220FA0B
:10031C0002F001FA04F340EA0300294630BD21FA49
:10032C0004F0294630BD94F0000F83F4801306BF0F
:10033C0081F480110134013D4EE77FEA645C18BF03
:10034C007FEA655C29D094EA050F08BF90EA020F9A
:10035C0005D054EA000C04BF1946104630BD91EA92
:10036C00030F1EBF0021002030BD5FEA545C05D195
:10037C004000494128BF41F0004130BD14F58004D4
:10038C003CBF01F5801130BD01F0004545F0FE4148
:10039C0041F470014FF0000030BD7FEA645C1ABF7D
:1003AC00194610467FEA655C1CBF0B46024650EAB4
:1003BC00013406BF52EA033591EA030F41F40021E0
:1003CC0030BD00BF90F0000F04BF0021704730B566
:1003DC004FF4806404F132044FF000054FF000013B
:1003EC0050E700BF90F0000F04BF0021704730B5FC
:1003FC004FF4806404F1320410F0004548BF4042D1
:10040C004FF000013EE700BF42004FEAE2014FEA25
:10041C0031014FEA02701FBF12F07F4393F07F4F00
:10042C0081F06051704732F07F4208BF704793F003
:10043C007F4F04BF41F40021704730B54FF4607416
:10044C0001F0004521F000411CE700BF50EA010219
:10045C0008BF704730B54FF000050AE050EA0102C2
:10046C0008BF704730B511F0004502D5404261EB32
:10047C0041014FF4806404F132045FEA915C3FF473
:10048C00D8AE4FF003025FEADC0C18BF03325FEA10
:10049C00DC0C18BF033202EBDC02C2F1200300FAC1
:1004AC0003FC20FA02F001FA03FE40EA0E0021FAE6
:1004BC0002F11444BDE600BF70B54FF0FF0C4CF4D4
:1004CC00E06C1CEA11541DBF1CEA135594EA0C0F86
:1004DC0095EA0C0F00F0DEF82C4481EA030621EAC1
:1004EC004C5123EA4C5350EA013518BF52EA0335FC
:1004FC0041F4801143F4801338D0A0FB02CE4FF0AE
:10050C000005E1FB02E506F00042E0FB03E54FF0DD
:10051C000006E1FB03569CF0000F18BF4EF0010ED5
:10052C00A4F1FF04B6F5007F64F5407404D25FEAD1
:10053C004E0E6D4146EB060642EAC62141EA555184
:10054C004FEAC52040EA5E504FEACE2EB4F1FD0CC6
:10055C0088BFBCF5E06F1ED8BEF1004F08BF5FEA44
:10056C00500E50F1000041EB045170BD06F00046F6
:10057C0046EA010140EA020081EA0301B4EB5C04A3
:10058C00C2BFD4EB0C0541EA045170BD41F480119B
:10059C004FF0000E013C00F3AB8014F1360FDEBFC0
:1005AC00002001F0004170BDC4F10004203C35DA9C
:1005BC000C341BDC04F11404C4F1200500FA05F31F
:1005CC0020FA04F001FA05F240EA020001F00042C0
:1005DC0021F0004110EBD37021FA04F642EB060136
:1005EC005EEA430E08BF20EAD37070BDC4F10C0460
:1005FC00C4F1200500FA04F320FA05F001FA04F224
:10060C0040EA020001F0004110EBD37041F100010F
:10061C005EEA430E08BF20EAD37070BDC4F120051A
:10062C0000FA05F24EEA020E20FA04F301FA05F282
:10063C0043EA020321FA04F001F0004121FA04F22A
:10064C0020EA020000EBD3705EEA430E08BF20EAFA
:10065C00D37070BD94F0000F0FD101F00046400034
:10066C0041EB010111F4801F08BF013CF7D041EAB6
:10067C00060195F0000F18BF704703F000465200BA
:10068C0043EB030313F4801F08BF013DF7D043EA8B
:10069C000603704794EA0C0F0CEA135518BF95EA41
:1006AC000C0F0CD050EA410618BF52EA4306D1D1C8
:1006BC0081EA030101F000414FF0000070BD50EAE7
:1006CC00410606BF1046194652EA430619D094EA71
:1006DC000C0F02D150EA013613D195EA0C0F05D15B
:1006EC0052EA03361CBF104619460AD181EA0301AF
:1006FC0001F0004141F0FE4141F470014FF0000067
:10070C0070BD41F0FE4141F4780170BD70B54FF001
:10071C00FF0C4CF4E06C1CEA11541DBF1CEA135581
:10072C0094EA0C0F95EA0C0F00F0A7F8A4EB050463
:10073C0081EA030E52EA03354FEA013100F088805A
:10074C004FEA03334FF0805545EA131343EA126323
:10075C004FEA022245EA111545EA10654FEA0026D8
:10076C000EF000419D4208BF964244F1FD0404F591
:10077C00407402D25B084FEA3202B61A65EB0305ED
:10078C005B084FEA32024FF480104FF4002CB6EBAA
:10079C00020E75EB030E22BFB61A754640EA0C002A
:1007AC005B084FEA3202B6EB020E75EB030E22BF6A
:1007BC00B61A754640EA5C005B084FEA3202B6EBAB
:1007CC00020E75EB030E22BFB61A754640EA9C006A
:1007DC005B084FEA3202B6EB020E75EB030E22BF3A
:1007EC00B61A754640EADC0055EA060E18D04FEAF8
:1007FC00051545EA16754FEA06164FEAC30343EA98
:10080C0052734FEAC2025FEA1C1CC0D111F4801F64
:10081C000BD141EA00014FF000004FF0004CB6E75D
:10082C0011F4801F04BF01430020B4F1FD0C88BFFC
:10083C00BCF5E06F3FF6AFAEB5EB030C04BFB6EB07
:10084C00020C5FEA500C50F1000041EB045170BDFA
:10085C000EF0004E4EEA113114EB5C04C2BFD4EB27
:10086C000C0541EA045170BD41F480114FF0000EAB
:10087C00013C90E645EA060E8DE60CEA135594EA27
:10088C000C0F08BF95EA0C0F3FF43BAF94EA0C0F2A
:10089C000AD150EA01347FF434AF95EA0C0F7FF49F
:1008AC0025AF104619462CE795EA0C0F06D152EAF3
:1008BC0003353FF4FDAE1046194622E750EA4106D7
:1008CC0018BF52EA43067FF4C5AE50EA41047FF4E8
:1008DC000DAF52EA43057FF4EBAE12E74FEA41024B
:1008EC00B2F1E04324BFB3F5001CDCF1FE5C0DD982
:1008FC0001F0004C4FEAC0024CEA5070B2F1004FCC
:10090C0040EB830008BF20F00100704711F0804FCE
:10091C0021D113F13872BCBF01F00040704741F493
:10092C0080114FEA5252C2F11802C2F1200C10FA97
:10093C000CF320FA02F018BF40F001004FEAC1237B
:10094C004FEAD32303FA0CFC40EA0C0023FA02F31F
:10095C004FEA4303CCE77FEA625307D150EA0133F5
:10096C001EBF4FF0FE4040F44000704701F00040C5
:10097C0040F0FE4040F40000704700BF80F00040A3
:10098C0002E000BF81F0004142001FBF5FEA41035B
:10099C0092EA030F7FEA226C7FEA236C6AD04FEA5B
:1009AC001262D2EB1363C1BFD218414048404140A0
:1009BC00B8BF5B42192B88BF704710F0004F40F452
:1009CC00000020F07F4018BF404211F0004F41F46E
:1009DC00000121F07F4118BF494292EA030F3FD03A
:1009EC00A2F1010241FA03FC10EB0C00C3F120034D
:1009FC0001FA03F100F0004302D5494260EB4000DC
:100A0C00B0F5000F13D3B0F1807F06D340084FEA46
:100A1C00310102F10102FE2A51D2B1F1004F40EB3B
:100A2C00C25008BF20F0010040EA030070474900A3
:100A3C0040EB0000013A28BFB0F5000FEDD2B0FA40
:100A4C0080FCACF1080CB2EB0C0200FA0CF0AABF63
:100A5C0000EBC25052421843BCBFD0401843704701
:100A6C0092F0000F81F4000106BF80F40000013207
:100A7C00013BB5E74FEA41037FEA226C18BF7FEADE
:100A8C00236C21D092EA030F04D092F0000F08BF20
:100A9C000846704790EA010F1CBF0020704712F007
:100AAC007F4F04D1400028BF40F00040704712F146
:100ABC0000723CBF00F50000704700F0004343F0AB
:100ACC00FE4040F4000070477FEA226216BF0846E1
:100ADC007FEA23630146420206BF5FEA412390EAA4
:100AEC00010F40F4800070474FF0000304E000BF9A
:100AFC0010F0004348BF40425FEA000C08BF70474B
:100B0C0043F0964301464FF000001CE050EA01020E
:100B1C0008BF70474FF000030AE000BF50EA010223
:100B2C0008BF704711F0004302D5404261EB410110
:100B3C005FEA010C02BF84460146002043F0B64335
:100B4C0008BFA3F18053A3F50003BCFA8CF2083A5A
:100B5C00A3EBC25310DB01FA02FC634400FA02FC63
:100B6C00C2F12002BCF1004F20FA02F243EB02006A
:100B7C0008BF20F00100704702F1200201FA02FCCC
:100B8C00C2F1200250EA4C0021FA02F243EB0200BF
:100B9C0008BF20EADC7070474FF0FF0C1CEAD05203
:100BAC001EBF1CEAD15392EA0C0F93EA0C0F6FD0C4
:100BBC001A4480EA010C400218BF5FEA41211ED0A2
:100BCC004FF0006343EA501043EA5111A0FB01318E
:100BDC000CF00040B1F5000F3EBF490041EAD37163
:100BEC005B0040EA010062F17F02FD2A1DD8B3F1DF
:100BFC00004F40EBC25008BF20F00100704790F04E
:100C0C00000F0CF0004C08BF49024CEA502040EA9F
:100C1C0051207F3AC2BFD2F1FF0340EAC250704765
:100C2C0040F400004FF00003013A5DDC12F1190FA3
:100C3C00DCBF00F000407047C2F10002410021FA15
:100C4C0002F1C2F1200200FA02FC5FEA310040F12D
:100C5C00000053EA4C0308BF20EADC70704792F0A6
:100C6C00000F00F0004C02BF400010F4000F013ADE
:100C7C00F9D040EA0C0093F0000F01F0004C02BFD9
:100C8C00490011F4000F013BF9D041EA0C018FE748
:100C9C000CEAD15392EA0C0F18BF93EA0C0F0AD04E
:100CAC0030F0004C18BF31F0004CD8D180EA010074
:100CBC0000F00040704790F0000F17BF90F0004F0D
:100CCC00084691F0000F91F0004F14D092EA0C0FEF
:100CDC0001D142020FD193EA0C0F03D14B0218BF82
:100CEC00084608D180EA010000F0004040F0FE40C8
:100CFC0040F40000704740F0FE4040F44000704764
:100D0C004FF0FF0C1CEAD0521EBF1CEAD15392EAE2
:100D1C000C0F93EA0C0F69D0A2EB030280EA010CD2
:100D2C0049024FEA402037D04FF0805343EA11116B
:100D3C0043EA10130CF000408B4238BF5B0042F1C9
:100D4C007D024FF4000C8B4224BF5B1A40EA0C006E
:100D5C00B3EB510F24BFA3EB510340EA5C00B3EBA0
:100D6C00910F24BFA3EB910340EA9C00B3EBD10F8E
:100D7C0024BFA3EBD10340EADC001B0118BF5FEAE0
:100D8C001C1CE0D1FD2A3FF650AF8B4240EBC25009
:100D9C0008BF20F0010070470CF0004C4CEA5020CA
:100DAC007F32C2BFD2F1FF0340EAC250704740F419
:100DBC0000004FF00003013A37E792F0000F00F00B
:100DCC00004C02BF400010F4000F013AF9D040EA89
:100DDC000C0093F0000F01F0004C02BF490011F41D
:100DEC00000F013BF9D041EA0C0195E70CEAD15315
:100DFC0092EA0C0F08D142027FF47DAF93EA0C0FFC
:100E0C007FF470AF084676E793EA0C0F04D14B02DF
:100E1C003FF44CAF08466EE730F0004C18BF31F091
:100E2C00004CCAD130F000427FF45CAF31F000438B
:100E3C007FF43CAF5FE700BF4FEA4002B2F1FE4FD8
:100E4C000FD34FF09E03B3EB12620DD94FEA002380
:100E5C0043F0004310F0004F23FA02F018BF404259
:100E6C0070474FF00000704712F1610F01D1420240
:100E7C0005D110F0004008BF6FF0004070474FF0F4
:100E8C00000070474FF0FF3C06E000BF4FF0010C34
:100E9C0002E000BF4FF0010C4DF804CD4FEA4002C8
:100EAC004FEA41037FEA226C18BF7FEA236C11D012
:100EBC0001B052EA530C18BF90EA010F58BFB2EBC5
:100ECC00030088BFC81738BF6FEAE17018BF40F045
:100EDC00010070477FEA226C02D15FEA402C05D1F9
:100EEC007FEA236CE4D15FEA412CE1D05DF8040B7E
:100EFC00704700BF844608466146FFE70FB5FFF711
:100F0C00C9FF002848BF10F1000F0FBD4DF808EDC8
:100F1C00FFF7F4FF0CBF012000205DF808FB00BFB9
:100F2C004DF808EDFFF7EAFF34BF012000205DF813
:100F3C0008FB00BF4DF808EDFFF7E0FF94BF012060
:100F4C0000205DF808FB00BF4DF808EDFFF7D2FF5D
:100F5C0094BF012000205DF808FB00BF4DF808EDA0
:100F6C00FFF7C8FF34BF012000205DF808FB00BF6D
:100F7C004FEA40024FEA41037FEA226C02D15FEA5A
:100F8C00402C08D17FEA236C02D15FEA412C02D1BC
:100F9C004FF0000070474FF0010070472DE9F84307
:100FAC0080460D461446002393608146002719E0C5
:100FBC002846FFF717FA02460B4600202649FFF792
:100FCC00A5FBFFF78BFC064639F8020BFFF78CFDEF
:100FDC0001463046FFF7E0FD0146A068FFF7D4FC60
:100FEC00A0600137BD42E3DC00271FE02846FFF775
:100FFC00F9F902460B4600201749FFF787FBFFF76C
:10100C006DFC064638F8020BFFF76EFDA168FFF782
:10101C00B9FC0146FFF7C0FD01463046FFF7BCFDA9
:10102C0001462068FFF7B0FC20600137BD42DDDCD3
:10103C00206803F033FB054660600849FFF7ACFD00
:10104C0001464FF07E50FFF75BFEE060A368236122
:10105C006561BDE8F88300BF0000F03F30622040BE
:10106C0000B585B0002300930193029303930368AA
:10107C00009301230293032303936946406801F014
:10108C00A3FD05B05DF804FB10B50A484FF480537E
:10109C000360094A426001230372084C4FF400516B
:1010AC00216062602372FFF7DBFF2046FFF7D8FF59
:1010BC0010BD00BF58040020000C01406404002047
:1010CC0010B504460188406801F090FE10B1012370
:1010DC00237210BD0A2001F0C9F82188606801F064
:1010EC0085FE0028F3D12188606801F07FFE00287E
:1010FC00F9D00A2001F0BAF800232372E9E70000C6
:10110C0010B5034C2046FFF7DBFF207A10BD00BF63
:10111C005804002010B5034C2046FFF7D1FF207A6D
:10112C0010BD00BF6404002000B583B00C4B9A695D
:10113C0042F008029A619B6903F008030193019B3A
:10114C000848094B036043604FF4807303814FF4EC
:10115C000073438100F000FA03B05DF804FB00BF9C
:10116C000010024070080020000C014038B5044605
:10117C000D4600F018FA7821204600F03DFA204682
:10118C0000F055FA0021204600F036FA204600F017
:10119C004EFA2946204600F02FFA204600F047FA76
:1011AC00204600F017FA38BD38B504460D4600F05D
:1011BC00FAF97821204600F01FFA204600F037FAA1
:1011CC004021204600F018FA204600F030FA29465B
:1011DC00204600F011FA204600F029FA204600F0D3
:1011EC00F9F938BD38B50C46084D40F0B001284629
:1011FC00FFF7BCFF210941F010012846FFF7B6FFAD
:10120C0004F00F012846FFF7B1FF38BD700800202D
:10121C0038B500250AE000210948FFF7C5FF013465
:10122C00E4B214F0800FF6D00135EDB2072D05D8DD
:10123C0000212846FFF7D6FF0024F2E738BD00BF97
:10124C007008002038B500250AE00A4B03EBC403F4
:10125C00595D0948FFF7A8FF01347F2CF5DD0135F6
:10126C00072D05DC0021E8B2FFF7BCFF0024F4E7F2
:10127C0038BD00BF700400207008002008B50020A5
:10128C0008E0084A02EBC3020021115401337F2B02
:10129C00F7DD0130072801DC0023F8E7FFF7D2FF68
:1012AC0008BD00BF700400204FEAD10C01F007010B
:1012BC0001228A40044B03EBC00010F80C101143C0
:1012CC0000F80C10704700BF700400204FEAD10CDE
:1012DC0001F0070101228A40044B03EBC00010F817
:1012EC000C1021EA020100F80C1070477004002069
:1012FC002DE9F04F83B08046894601921F4613F0CA
:10130C00070318BF012303EBD70B7B0803FB0BFB75
:10131C005FFA8BFB0C464FF0000A2FE0019B203B41
:10132C0003EB4303204A02EB830313F80A5036E025
:10133C00019B203B1D4A02EB031313F80A502EE0CD
:10134C0021464046FFF7C2FF6D00EDB20134E4B216
:10135C00A4EB0903BB420AD00136072E0CDC15F0B6
:10136C00800FEDD021464046FFF79EFFECE708F1D9
:10137C0001085FFA88F84C460AF1010AD34510DDE2
:10138C000C2FCBD0102FD3D0182F0AD1019B203B80
:10139C0003EBC303064A02EB830313F80A5000263F
:1013AC00DBE703B0BDE8F08FAC470008204C000829
:1013BC0010520008F8B504460F4615461E4600E0CC
:1013CC0001352A78A2F12000C0B25E280FD833462E
:1013DC0039462046FFF78CFF04EB5604E4B2C6F105
:1013EC0080039C42ECDD0237FFB20024E8E7F8BD35
:1013FC000246012002E002FB00F019464B1E0029B8
:10140C00F9D170472DE9F047804689461E469DF874
:10141C0020A0171E05DB53462B22FFF769FF002483
:10142C0022E053462D22FFF763FF7F42F7E708EBDC
:10143C00C405EDB2311B01390A20FFF7D9FFB7FB08
:10144C00F0F00B4AA2FB0032D20802EB8202A0EBB6
:10145C004202303205F108005346D2B24946C0B2BE
:10146C00FFF746FF0134E4B2B442E0D3BDE8F087A5
:10147C00CDCCCCCC10B5002204E00133B3F57A7F8F
:10148C00FBD30132B2F57A7F01D20023F6E7FFF7E6
:10149C004BFE304CAE212046FFF768FED52120468E
:1014AC00FFF764FE80212046FFF760FEA82120464E
:1014BC00FFF75CFE3F212046FFF758FED321204664
:1014CC00FFF754FE00212046FFF750FE4021204636
:1014DC00FFF74CFEA1212046FFF748FEC82120460D
:1014EC00FFF744FEDA212046FFF740FE122120468A
:1014FC00FFF73CFE81212046FFF738FEFF212046F6
:10150C00FFF734FED9212046FFF730FEF1212046AB
:10151C00FFF72CFEDB212046FFF728FE302120466A
:10152C00FFF724FEA4212046FFF720FEA62120462B
:10153C00FFF71CFE8D212046FFF718FE14212046D4
:10154C00FFF714FEAF212046FFF710FEFFF760FEF9
:10155C0010BD00BF70080020F0B585B00446002512
:10156C000095019502950395038900931127019726
:10157C00032603966946006801F026FB63890093F5
:10158C000197029503966946606801F01DFB0122E4
:10159C006189606801F031FC01222189206801F029
:1015AC002CFC05B0F0BD10B5044601224189406801
:1015BC0001F023FC01222189206801F01EFC00228D
:1015CC006189606801F019FC00222189206801F012
:1015DC0014FC10BD10B5044600224189406801F08E
:1015EC000CFC01222189206801F007FC0122618991
:1015FC00606801F002FC10BD70B504460E46002573
:10160C0012E080222A4132406189606801F0F5FBCA
:10161C0001222189206801F0F0FB00222189206839
:10162C0001F0EBFB0135EDB2072DEAD970BD38B5F1
:10163C00044601224189406801F0DFFB0122218927
:10164C00206801F0DAFB6189606801F0CFFB054688
:10165C0000222189206801F0D0FB284638BD00000B
:10166C0000B585B000230193029303931048114AEF
:10167C0002608360037303754FF42022C2614360E0
:10168C000123036100F0EEFF60B901230193029383
:10169C000023039301A9064800F03AFE28B905B0CF
:1016AC005DF804FB00F081F9EFE700F07EF9F6E756
:1016BC007C0800200024014010B586B00023029362
:1016CC0003930493059302681E4B9A4201D006B013
:1016DC0010BD044603F56C439A6942F400729A619A
:1016EC009A6902F400720092009A9A6942F004021C
:1016FC009A619B6903F004030193019B02230293FB
:10170C000323039302A9104801F05EFA0F48104B13
:10171C0003600023436083608022C2604FF48072B8
:10172C0002614FF48062426183614FF44053C361A4
:10173C0001F09EF818B9054B23625C62C7E700F014
:10174C0034F9F8E70024014000080140AC080020FF
:10175C000800024000B583B0194B5A6942F00102EF
:10176C005A615B6903F001030193019B1548164B09
:10177C0003604FF480434360402383608023C36045
:10178C0000230361436183614FF40053C36101F093
:10179C006FF890B9002211460B2000F0F9FF0B20D6
:1017AC0001F02EF8002211460E2000F0F1FF0E2061
:1017BC0001F026F803B05DF804FB00F0F6F8E9E759
:1017CC0000100240F00800201C00024000B589B057
:1017DC000023049305930693079303F1804303F5C9
:1017EC0004339A6942F020029A619A6902F020024D
:1017FC000192019A9A6942F004029A619A6902F084
:10180C0004020292029A9A6942F008029A619B6958
:10181C0003F008030393039B4FF4405304930123F9
:10182C00069304A9024801F0CFF909B05DF804FB56
:10183C00000C01400B4B834200D0704710B50A4B93
:10184C0000221A70094C41F6B05322460849094847
:10185C0001F044F841F6B0522146074802F0C8FBAB
:10186C0010BD00BF7C080020FD2600203027002082
:10187C004C090020F00800204446002010B588B028
:10188C008646EC460A4C0FCCACE80F0094E80F00EF
:10189C00ACE80700ACF80030064B734501D008B03B
:1018AC0010BD14231E226946024802F041FBF6E7E4
:1018BC006C5F00084446002008B5032809D8DFE80F
:1018CC0000F00209101710230D4A00210846FFF7FB
:1018DC0071FD08BD10230B4A00210846FFF76AFD75
:1018EC00F7E71023084A00210846FFF763FDF0E7ED
:1018FC001023064A00210846FFF75CFDE9E700BF0C
:10190C008C5F0008945F00089C5F0008A45F0008CF
:10191C0038B504460E4B01221A700E4B1A68136828
:10192C0043F0010313600C4B1A68136843F0010376
:10193C0013600A4D40F6D8622946094800F0CEFDE6
:10194C00224640F6D8612846FFF728FB38BD00BF79
:10195C00FD260020E0440020704500204C090020AA
:10196C007C08002070B504460E46154689689068C0
:10197C00FFF708F8A06071686868FFF703F860600B
:10198C00F168E868FEF7FEFFE06031692869FEF750
:10199C00F9FF206171696869FEF7F4FF60613168D5
:1019AC002868FEF7EFFF206070BD72B6FEE700B549
:1019BC0095B0282200210DEB020002F0ADFD0023B2
:1019CC00059306930793089309930193029303934A
:1019DC00049301220A924FF480330B930E9202224D
:1019EC00119212934FF4E01313930AA801F022FA08
:1019FC00C8B90F23059302210691002307934FF4D6
:101A0C0080620892099305A801F046FC68B902238C
:101A1C0001934FF40043039301A801F019FD30B971
:101A2C0015B05DF804FBFFF7C0FFFFF7BEFFFFF733
:101A3C00BCFF000000B583B000F0F4FBFFF7B7FF6C
:101A4C00FFF7C4FEFFF786FE00F0F6F900F072FA1D
:101A5C0000F0C4FA00F0FEF8FFF702FE00F01EFBE7
:101A6C00FFF712FBFFF706FD00214A4802F02AF8A7
:101A7C0040F6D8624849494800F030FD00214848FA
:101A8C0002F08EF80021474802F08AF80C214648F3
:101A9C0002F018F8454B00221A7034E0FFF73AFBBD
:101AAC0018B9424B01221A7027E0FFF729FB20BB23
:101ABC003E4B02221A7020E03D48FFF729FF3D4BB8
:101ACC001B78DBB2012BFAD0FFF724FB18B9374B8C
:101ADC0000221A7011E0FFF713FB70B9334B02228E
:101AEC001A700AE03448FFF713FF324B1B78DBB255
:101AFC00012BFAD02D4B03221A702C4B1878FFF7C0
:101B0C00DBFEFFF79FFB294B1B78DBB2032BF4D8D2
:101B1C0001A252F823F000BFA91A0008C51A000848
:101B2C00F11A0008351B0008244D234A2049284689
:101B3C00FFF718FF2249E868FFF72EF8FFF77CF94A
:101B4C00024610240094062321460020FFF75AFC7D
:101B5C002869FFF771F90246009406232021002022
:101B6C00FFF750FC6869FFF767F9024600940823F9
:101B7C0030210020FFF746FCFFF764FBFFF7CAFAA1
:101B8C000028FBD1094B00221A70FFF777FBFFF7F7
:101B9C003FFBB2E7284500204C0900207C080020C0
:101BAC00E044002070450020B8450020FC260020B1
:101BBC0034090020FD2600201827002000270020D3
:101BCC0000401C4682B00E4B9A6942F001029A61A9
:101BDC009A6902F001020092009ADA6942F080528E
:101BEC00DA61DB6903F080530193019B054A53686A
:101BFC0023F0E06343F00073536002B0704700BF02
:101C0C000010024000000140FEE7FEE7FEE7FEE7A1
:101C1C00FEE770477047704708B500F015FB08BD2C
:101C2C0008B5024800F02EFF08BD00BFAC0800202C
:101C3C0008B5024800F026FF08BD00BF0046002092
:101C4C0008B5024802F0FAFA08BD00BF444600206D
:101C5C007047000000B58FB000230A930B930C93D0
:101C6C000D930893099301930293039304930593A3
:101C7C00069307931F48204A0260436083608F22BB
:101C8C00C2600361836101F05DFD18BB4FF48053AA
:101C9C000A930AA9174801F087FEF0B9154801F01C
:101CAC007DFDE8B900230893099308A9114801F0B8
:101CBC00B3FFC0B96023019347230293002303931E
:101CCC0005930C2201A90B4801F0F4FD70B90FB07B
:101CDC005DF804FBFFF769FED8E7FFF766FEDDE76A
:101CEC00FFF763FEDEE7FFF760FEE3E7FFF75DFE5D
:101CFC00EDE700BFB84500200008004084B0036841
:101D0C001C4A934213D0B3F1804F1CD01A4A934211
:101D1C0025D01A4A934214D1194BDA6942F00402C5
:101D2C00DA61DB6903F004030393039B09E0144BB2
:101D3C009A6942F400629A619B6903F40063009310
:101D4C00009B04B0704703F50433DA6942F00102DA
:101D5C00DA61DB6903F001030193019BF1E7084BA6
:101D6C00DA6942F00202DA61DB6903F002030293E2
:101D7C00029BE6E7002C01400004004000080040F4
:101D8C000010024000B589B000230493059306931C
:101D9C0007930368244A934208D0B3F1804F1AD0BA
:101DAC00224A93422CD009B05DF804FB204B9A696F
:101DBC0042F004029A619B6903F004030193019BB6
:101DCC004FF48073049302230593079304A91948D5
:101DDC0000F0FAFEE7E703F504339A6942F00402D7
:101DEC009A619B6903F004030293029B0123049301
:101DFC0002230593079304A90E4800F0E5FED2E7F1
:101E0C000B4B9A6942F004029A619B6903F004033C
:101E1C000393039B4023049302230593079304A984
:101E2C00044800F0D1FEBEE7002C01400004004045
:101E3C00001002400008014010B596B00024129426
:101E4C001394149415941094119409940A940B946B
:101E5C000C940D940E940F942022214601A802F0AC
:101E6C005BFB3248324B0360446084604FF43B733D
:101E7C00C36004614461846101F064FC00283FD1BB
:101E8C004FF48053129312A9284801F08DFD0028BD
:101E9C0039D1264801F082FC002837D1082123488B
:101EAC0001F0A8FC002834D100231093119310A941
:101EBC001E4801F0B1FE00282ED160230993642343
:101ECC000A9300220B920C920D920E920F9209A97A
:101EDC00164801F0EFFC10BB00230193029303930F
:101EEC00049305934FF400520692089301A90F48EE
:101EFC0001F0C8FEB0B90D48FFF744FF16B010BD95
:101F0C00FFF753FDBCE7FFF750FDC2E7FFF74DFDB0
:101F1C00C4E7FFF74AFDC7E7FFF747FDCDE7FFF73B
:101F2C0044FDD9E7FFF741FDE5E700BFE0440020A1
:101F3C00002C014000B58FB000230A930B930C9337
:101F4C000D930893099301930293039304930593C0
:101F5C000693079320484FF08042026043608360F1
:101F6C002322C2600361836101F0ECFB28BB4FF4B8
:101F7C0080530A930AA9184801F016FD00BB1648B5
:101F8C0001F00CFCF8B900230893099308A9124836
:101F9C0001F042FED0B96023019311230293002279
:101FAC000392059201A90C4801F084FC88B90A48F7
:101FBC00FFF7E8FE0FB05DF804FBFFF7F6FCD6E781
:101FCC00FFF7F3FCDBE7FFF7F0FCDCE7FFF7EDFCDA
:101FDC00E1E7FFF7EAFCEAE72845002000B58FB0FF
:101FEC0000230A930B930C930D930893099301937D
:101FFC000293039304930593069307932548264A6B
:10200C000260436083604FF4D472C26003618361E9
:10201C0001F098FB58BB4FF480530A930AA91D4852
:10202C0001F0C2FC30BB1B4801F0B8FB28BB0821F7
:10203C00184801F0DFFB18BB00230893099308A98B
:10204C00144801F0E9FDF0B9602301938823029351
:10205C00022303930022059201A90E4801F02AFCE9
:10206C00A0B90C48FFF78EFE0FB05DF804FBFFF72C
:10207C009CFCD0E7FFF799FCD5E7FFF796FCD6E779
:10208C00FFF793FCD8E7FFF790FCDDE7FFF78DFC3B
:10209C00E7E700BF704500200004004008B50A487F
:1020AC000A4B03604FF4E133436000238360C36049
:1020BC0003610C2242618361C36101F009FF00B925
:1020CC0008BDFFF772FCFBE74446002000380140D6
:1020DC0070B586B0002302930393049305930268B2
:1020EC00264B9A4201D006B070BD044603F5584306
:1020FC009A6942F480429A619A6902F48042009291
:10210C00009A9A6942F004029A619B6903F00403F5
:10211C000193019B4FF40073029302230393032357
:10212C000593174E02A9304600F04EFD4FF4806324
:10213C00029300250395049502A9304600F044FD56
:10214C001048114B03601023436085608023C360EB
:10215C00056145618561C56100F08AFB58B9094B81
:10216C00A3635C6200221146252000F011FB2520A0
:10217C0000F046FBB7E7FFF718FCF0E7003801402A
:10218C00000801400046002044000240FFF760FDBB
:10219C000B480C490C4A002302E0D458C4500433B9
:1021AC00C4188C42F9D3094A094C002301E013608E
:1021BC000432A242FBD302F08BF9FFF73BFC7047D1
:1021CC00000000203C040020E85F00083C040020D4
:1021DC0094460020FEE7000010B504460E4B18781C
:1021EC004FF47A73B3FBF0F30C4A1068B0FBF3F0C6
:1021FC0000F014FB68B90F2C01D901200AE0002271
:10220C0021464FF0FF3000F0C3FA054B1C60002054
:10221C0000E0012010BD00BF0400002000000020E1
:10222C000800002008B5074A136843F01003136038
:10223C00032000F09BFA0F20FFF7CEFFFFF7C2FC44
:10224C00002008BD00200240034A1168034B1B7894
:10225C000B441360704700BF8C4600200400002024
:10226C00014B1868704700BF8C46002038B50446F7
:10227C00FFF7F6FF0546B4F1FF3F02D0044B1B7885
:10228C001C44FFF7EDFF401BA042FAD338BD00BF42
:10229C000400002008B5436A9A6A12F0500F1ED150
:1022AC009A6A42F400729A621A68926802F4602286
:1022BC00B2F5602F03D01846FFF7BCFA08BD1A7BA5
:1022CC00002AF8D19A6A22F480729A629A6A12F4FD
:1022DC00805FF0D19A6A42F001029A62EBE71B6AC6
:1022EC001B6B9847EAE7704708B5406AFFF7FBFF9E
:1022FC0008BD704708B5406A836A43F040038362A7
:10230C00C36A43F00403C362FFF7F3FF08BD000088
:10231C0030B482B00022019290F82420012A00F0FF
:10232C0091800346012280F824204A68062A2DD881
:10233C000468606B02EB8202053A4FF01F0C0CFA3A
:10234C0002FC20EA0C000D6805FA02F202436263FB
:10235C000A68092A3AD91C68E06802EB42021E3A64
:10236C004FF0070C0CFA02FC20EA0C008D6805FA01
:10237C0002F20243E2600A68103A012A36D90020C0
:10238C00002283F8242002B030BC70470C2A0ED8EF
:10239C000568286B02EB8202233A1F24944020EA42
:1023AC0004000C6804FA02F202432A63D0E70568C1
:1023BC00E86A02EB8202413A1F24944020EA0400AE
:1023CC000C6804FA02F20243EA62C1E71C68206955
:1023DC0002EB42024FF0070C0CFA02FC20EA0C0054
:1023EC008D6805FA02F202432261C4E71A681648A6
:1023FC00824205D09A6A42F020029A620120BFE71D
:10240C00906810F4000F1BD1906840F400009060AD
:10241C000A68102A01D00020B2E70C4A12680C4955
:10242C00A1FB0212920C02EB82025200019202E01A
:10243C00019A013A0192019A002AF9D100209FE7F2
:10244C0000209DE702209EE70024014000000020B0
:10245C0083DE1B4330B583B00023019303689A6875
:10246C0012F0010F33D104469A6842F001029A60CF
:10247C00184B1B68184AA2FB03239B0C019302E028
:10248C00019B013B0193019B002BF9D1FFF7E8FE67
:10249C00054623689B6813F0010F16D1FFF7E0FE89
:1024AC00431B022BF5D923689B6813F0010FF0D165
:1024BC00A36A43F01003A362E36A43F00103E362EF
:1024CC00002384F82430012002E0002000E00020EA
:1024DC0003B030BD0000002083DE1B43F8B504467A
:1024EC000D46164601684448814259D0434B9942E7
:1024FC0056D094F82430012B7CD0012384F824305E
:10250C002046FFF7A7FF074600286ED1A16A21F4E9
:10251C00706121F0010141F48071A1622268374B96
:10252C009A4244D0A36A23F48013A362536813F431
:10253C00806F05D0A36A23F4405343F48053A36205
:10254C00A36A13F4805F48D0E36A23F00603E362C6
:10255C00002384F82430236A294A9A62236A294A80
:10256C00DA62236A284A1A6323686FF002021A603F
:10257C002268936843F480739360216833462A463B
:10258C004C31206A00F0D3F923689A6802F4602277
:10259C00B2F5602F24D09A6842F480129A6027E03A
:1025AC00154B5B6813F4702FA3D0012720E0A3F523
:1025BC0080635B6813F4702FB4D0A36A43F4801368
:1025CC00A3620D4B5B6813F4806FB9D0A36A23F43C
:1025DC00405343F48053A362B2E70023E362B7E7AE
:1025EC009A6842F4A0029A6002E0002384F8243036
:1025FC003846F8BD0227FBE70024014000280140C3
:10260C00A1220008F52200080123000838B5036850
:10261C009A6812F0010F01D1002038BD04469A6867
:10262C0022F001029A60FFF71BFE054623689B68A7
:10263C0013F0010F13D0FFF713FE431B022BF5D938
:10264C0023689B6813F0010FF0D0A36A43F01003CA
:10265C00A362E36A43F00103E3620120DDE700209B
:10266C00DBE7000000287BD070B50446836A002BA2
:10267C004DD02046FFF7CAFFA36A13F0100369D1AF
:10268C00002867D1A26A22F4885222F0020242F09A
:10269C000202A2626268E1690A43217B42EA4102BA
:1026AC00A568B5F5807F02D0012D36D01D46267D5C
:1026BC00012E35D02668716821F469412943716077
:1026CC002568AE68274931401143A960A168B1F56E
:1026DC00807F01D0012902D12369013B1B052568AC
:1026EC00E96A21F470010B43EB62236899681E4B75
:1026FC000B409A4225D0A36A23F0120343F0100337
:10270C00A362E36A43F00103E362012027E0C362A2
:10271C0080F82430FEF7D0FFABE74FF48075C6E7A6
:10272C0031B9A169013945EA413141F40065C1E78C
:10273C00A16A41F02001A162E16A41F00101E1626C
:10274C00B8E70023E362A36A23F0030343F0010319
:10275C00A36204E0A36A43F01003A362012070BDDE
:10276C0001207047FDF7E1FFFE0E1FFF074AD368FB
:10277C0023F4E0631B041B0C000200F4E060034331
:10278C0043F0BF6343F40033D360704700ED00E0C7
:10279C0000B5194BDB68C3F30223C3F1070CBCF182
:1027AC00040F28BF4FF0040C03F1040EBEF1060F0A
:1027BC0018D9033B4FF0FF3E0EFA0CFC21EA0C013A
:1027CC0099400EFA03F322EA0303194300280BDBAA
:1027DC000901C9B200F1604000F5614080F80013B6
:1027EC005DF804FB0023E5E700F00F000901C9B216
:1027FC00024B1954F4E700BF00ED00E014ED00E0CB
:10280C00002807DB00F01F02400901239340024A15
:10281C0042F82030704700BF00E100E00138B0F111
:10282C00807F0BD24FF0E0235861054AF02182F8EB
:10283C0023100020986107221A617047012070470D
:10284C0000ED00E030B40124056CAC40C56B6C604D
:10285C00046863604368102B05D0036899600368B3
:10286C00DA6030BC704703689A600368D960F8E797
:10287C0060B310B402460168154B0B441548A0FB1D
:10288C0003031B099B001364134BD363022382F8CD
:10289C002130086820F47F5020F030005368946891
:1028AC002343D46823431469234354692343946911
:1028BC002343D469234303430B600020906301231B
:1028CC0082F8213082F8200010BC7047012070473C
:1028DC00F8FFFDBFCDCCCCCC0000024070B5044657
:1028EC0090F82000012820D0012084F8200094F8D2
:1028FC002100C0B2012804D0002384F8203002202B
:10290C0070BD022084F821000025A563266830687C
:10291C0020F0010030602046FFF794FF2268136816
:10292C0043F0010313602846EAE70220E8E738B5D4
:10293C00044690F82000012832D0012084F82000B1
:10294C0094F82100C0B2012804D0002384F8203070
:10295C00022038BD022084F821000020A0632568E5
:10296C00286820F0010028602046FFF76BFFE36A1F
:10297C005BB12268136843F00E031360226813687E
:10298C0043F0010313600020E3E72268136823F08F
:10299C00040313602268136843F00A031360EDE725
:1029AC000220D6E790F82130DBB2022B06D00423AC
:1029BC008363002380F8203001207047026813687D
:1029CC0023F00E0313600268136823F001031360F5
:1029DC00036CC16B012202FA03F34B6080F82120D7
:1029EC00002380F8203018467047000008B590F896
:1029FC002130DBB2022B03D004238363012008BDFA
:102A0C000268136823F00E0313600268136823F046
:102A1C00010313600368194A934214D01432934291
:102A2C001FD0143293421ED0143293421ED0143253
:102A3C0093421ED01432934202D04FF0807203E0C6
:102A4C004FF4801200E001220D4B5A60012380F8F4
:102A5C002130002380F82030436B6BB19847002065
:102A6C00CDE71022F0E74FF48072EDE74FF480527F
:102A7C00EAE74FF48032E7E70020C0E708000240A5
:102A8C000000024038B5C36B1A6804682568016CF5
:102A9C0004238B40134235D015F0040F32D0236839
:102AAC0013F0200F03D1236823F004032360036881
:102ABC00434A934214D01432934218D014329342A6
:102ACC0017D01432934217D01432934217D01432C9
:102ADC00934202D04FF0806203E04FF4800200E09A
:102AEC000422384B5A60C36A03B1984738BD402260
:102AFC00F7E74FF48062F4E74FF48042F1E74FF4CC
:102B0C008022EEE702238B4013423CD015F0020FDB
:102B1C0039D0236813F0200F06D1236823F00A0361
:102B2C002360012380F821300368254A934214D096
:102B3C00143293421CD0143293421BD01432934261
:102B4C001BD0143293421BD01432934202D04FF05C
:102B5C00007203E04FF4001200E00222194B5A609D
:102B6C00002380F82030836A002BBFD09847BDE744
:102B7C002022F3E74FF40072F0E74FF40052EDE738
:102B8C004FF40032EAE7082303FA01F11142ADD009
:102B9C0015F0080FAAD0236823F00E032360026CF3
:102BAC00C16B012303FA02F24A60836380F821307F
:102BBC00002380F82030036B002B97D0984795E7C3
:102BCC00080002400000024070B582B00024A44608
:102BDC00A6E0804DAA4210D007D97F4DAA420CD056
:102BEC0005F58035AA4208D013E0A5F58015AA4258
:102BFC0003D005F57025AA4207D18A68002A58D05F
:102C0C00012A51D04361082403E0A5F58015AA429E
:102C1C00F3D0BEF1FF0F4ED80646BEF1FF0F4CD8D5
:102C2C004FEA8C0233680F25954023EA050304FA1A
:102C3C0002F2134333604B6813F0805F6ED0674B26
:102C4C009A6942F001029A619B6903F001030193B6
:102C5C00019B4FEA9C02951C614B53F825600CF0CC
:102C6C0003039D000F23AB4026EA03065D4B9842FD
:102C7C0029D003F58063984200F08E8003F58063C1
:102C8C00984200F08B8003F58063984219D004239E
:102C9C001AE0CC68BDE7CC680434BAE7CC680834D9
:102CAC00B7E7CC680C34B4E703610824B1E700241F
:102CBC00AFE70424ADE7061DAFE7ACF108029200C4
:102CCC00B0E7032300E00023AB4033430232444D12
:102CDC0045F822304B6813F4801F61D0424A936848
:102CEC0043EA0E0393604B6813F4001F5ED03E4A18
:102CFC00D36843EA0E03D3604B6813F4003F5BD0F8
:102D0C00394A536843EA0E0353604B6813F4803F0F
:102D1C0058D0354A136843EA0E0313600CF1010CCA
:102D2C000A6832FA0CF353D0012303FA0CF302EACB
:102D3C00030E33EA0202F1D14A68122A3FF649AF78
:102D4C00122A3FF666AF01A555F822F0072C0008B1
:102D5C009F2C0008A92C0008BB2C00081F2C000875
:102D6C001F2C00081F2C00081F2C00081F2C00080B
:102D7C001F2C00081F2C00081F2C00081F2C0008FB
:102D8C001F2C00081F2C00081F2C00081F2C0008EB
:102D9C00A32C0008AF2C0008012395E7022393E72E
:102DAC00114A936823EA0E0393609CE70E4AD3689A
:102DBC0023EA0E03D3609FE70B4A536823EA0E0302
:102DCC005360A2E7084A136823EA0E031360A5E7D1
:102DDC0002B070BD00002210000031100010024043
:102DEC0000000140000801400004014083681942C2
:102DFC0001D001207047002070470AB10161704773
:102E0C00090401617047000082B0084B1B68084A36
:102E1C00A2FB03235B0A00FB03F3019300BF019B9E
:102E2C005A1E0192002BF9D102B07047000000200D
:102E3C00D34D6210002800F0F18170B582B00446C9
:102E4C00036813F0010F2CD0994B5B6803F00C0353
:102E5C00042B1DD0964B5B6803F00C03082B12D08F
:102E6C006368B3F5803F41D0002B55D103F180430B
:102E7C0003F504331A6822F480321A601A6822F4BB
:102E8C0080221A6037E08A4B5B6813F4803FE7D0EE
:102E9C00874B1B6813F4003F03D06368002B00F0D2
:102EAC00BF81236813F0020F75D0814B5B6813F060
:102EBC000C0F5FD07E4B5B6803F00C03082B54D0D7
:102ECC002369002B00F08A807A4B01221A60FFF7ED
:102EDC00C7F90546764B1B6813F0020F75D1FFF747
:102EEC00BFF9401B0228F5D903209EE1704A1368F4
:102EFC0043F480331360636843B3FFF7B1F90546BD
:102F0C006B4B1B6813F4003FCBD1FFF7A9F9401BA7
:102F1C006428F5D9032088E1B3F5A02F09D0644BC0
:102F2C001A6822F480321A601A6822F480221A601D
:102F3C00E1E703F18043A3F53C331A6842F48022A5
:102F4C001A601A6842F480321A60D4E7FFF788F9E5
:102F5C000546574B1B6813F4003FA2D0FFF780F9CE
:102F6C00401B6428F5D903205FE1514B5B6813F4D7
:102F7C00803FA5D14E4B1B6813F0020F03D0236981
:102F8C00012B40F04F814A4A136823F0F803616922
:102F9C0043EAC1031360236813F0080F33D0A3690D
:102FAC00002B5CD0434B0122C3F88024FFF758F967
:102FBC0005463F4B5B6A13F0020F21D1FFF750F926
:102FCC00401B0228F5D903202FE1394A136823F05E
:102FDC00F803616943EAC1031360DCE7354B002257
:102FEC001A60FFF73DF90546314B1B6813F0020FD1
:102FFC00D1D0FFF735F9401B0228F5D9032014E195
:10300C000120FFF701FF236813F0040F00F09680F6
:10301C00274BDB6913F0805F34D1254BDA6942F022
:10302C008052DA61DB6903F080530193019B012527
:10303C00214B1B6813F4807F26D0E368012B3DD015
:10304C00002B53D103F1804303F504331A6A22F0A9
:10305C0001021A621A6A22F004021A6233E0154B5A
:10306C000022C3F88024FFF7FBF80546104B5B6A7F
:10307C0013F0020FC7D0FFF7F3F8401B0228F5D965
:10308C000320D2E00025D3E70B4A136843F4807386
:10309C001360FFF7E5F80646074B1B6813F4807FB7
:1030AC00CBD1FFF7DDF8801B6428F5D90320BCE0F9
:1030BC000010024000004242007000405F4A136A58
:1030CC0043F001031362E36833B3FFF7C9F8064614
:1030DC005A4B1B6A13F0020F2FD1FFF7C1F8801B5C
:1030EC0041F288339842F3D903209EE0052B09D096
:1030FC00524B1A6A22F001021A621A6A22F0040276
:10310C001A62E0E74D4B1A6A42F004021A621A6A1C
:10311C0042F001021A62D6E7FFF7A2F80646474BC7
:10312C001B6A13F0020F08D0FFF79AF8801B41F2CC
:10313C0088339842F3D9032077E0E5B9E369002B93
:10314C0072D03E4A526802F00C02082A56D0022B6A
:10315C0017D03B4B00221A66FFF782F80446374B18
:10316C001B6813F0007F47D0FFF77AF8001B02288A
:10317C00F5D9032059E0314AD36923F08053D36148
:10318C00DCE72F4B00221A66FFF76AF805462B4B3B
:10319C001B6813F0007F06D0FFF762F8401B022873
:1031AC00F5D9032041E0236AB3F5803F1AD02349B7
:1031BC004B6823F47413226A606A024313434B6016
:1031CC001F4B01221A66FFF74BF804461B4B1B687A
:1031DC0013F0007F0ED1FFF743F8001B0228F5D93E
:1031EC00032022E0154A536823F40033A1680B43F3
:1031FC005360DCE7002018E0002016E0012B16D00D
:10320C000E4B5B6803F48031226A914211D103F4B6
:10321C007013626A93420ED1002006E001207047C1
:10322C00012002E0012000E0002002B070BD01206E
:10323C00FBE70120F9E70120F7E700BF001002408F
:10324C00000042420F4B5B6803F00C02082A01D0CD
:10325C000D487047C3F383420C49885C13F4803FDC
:10326C000BD0084B5B68C3F34043094AD35C064A56
:10327C0002FB00F0B0FBF3F07047064B03FB00F0D1
:10328C00704700BF0010024000127A00C45F0008B3
:10329C00D45F000800093D00002800F0A08070B544
:1032AC000D460446524B1B6803F007038B420BD2AE
:1032BC004F4A136823F007030B431360136803F0A2
:1032CC0007038B4240F08D80236813F0020F17D058
:1032DC0013F0040F04D0474A536843F4E06353607F
:1032EC00236813F0080F04D0424A536843F4605328
:1032FC005360404A536823F0F003A1680B435360BA
:10330C00236813F0010F31D06368012B20D0022BFE
:10331C0025D0384A126812F0020F64D035494A6839
:10332C0022F0030213434B60FEF79AFF0646314B23
:10333C005B6803F00C036268B3EB820F16D0FEF7E8
:10334C008FFF801B41F288339842F0D9032045E06F
:10335C00284A126812F4003FE0D101203EE0254AD1
:10336C00126812F0007FD9D1012037E0204B1B6886
:10337C0003F00703AB420AD91D4A136823F0070375
:10338C002B431360136803F00703AB422DD1236862
:10339C0013F0040F06D0174A536823F4E063E16876
:1033AC000B435360236813F0080F07D0114A53687E
:1033BC0023F46053216943EAC1035360FFF742FFD2
:1033CC000C4B5B68C3F303130B4AD35CD8400B4B19
:1033DC0018600B4B1868FEF7FFFE002070BD012033
:1033EC0070470120FAE70120F8E70120F6E700BF5B
:1033FC000020024000100240AC5F000800000020DA
:10340C0008000020014B1868704700BF0000002026
:10341C0008B5FFF7F7FF044B5B68C3F30223034ABD
:10342C00D35CD84008BD00BF00100240BC5F000850
:10343C0008B5FFF7E7FF044B5B68C3F3C223034AED
:10344C00D35CD84008BD00BF00100240BC5F000830
:10345C0070B582B00446036813F0010F36D03F4BB1
:10346C00DB6913F0805F49D13C4BDA6942F0805242
:10347C00DA61DB6903F080530193019B0125384B22
:10348C001B6813F4807F3BD0344B1B6A13F44073DE
:10349C0013D0626802F440729A420ED02F4A136A1B
:1034AC0023F440702F490126C1F840640026C1F86E
:1034BC004064106213F0010F36D1284A136A23F4CA
:1034CC00407361680B431362002D3ED1236813F0E7
:1034DC00020F06D0214A536823F44043A1680B43E2
:1034EC005360236813F0100F34D01C4A536823F434
:1034FC008003E1680B43536000202CE00025BEE7FD
:10350C00174A136843F480731360FEF7A9FE06464E
:10351C00134B1B6813F4807FB6D1FEF7A1FE801B02
:10352C006428F5D9032016E0FEF79AFE06460B4BED
:10353C001B6A13F0020FC0D1FEF792FE801B41F202
:10354C0088339842F3D9032005E0D36923F08053E4
:10355C00D361BBE7002002B070BD00BF0010024079
:10356C00007000400000424270B4036A026A22F00C
:10357C00010202624668826922F073020C6844EA16
:10358C00020523F002028B6813430D4CA04209D0B4
:10359C000B4CA0420DD0466085614A6842630362C1
:1035AC0070BC704723F00803CA68134323F004036C
:1035BC00EEE726F440764A6932438E691643EAE711
:1035CC00002C014030B4036A026A22F48072026259
:1035DC004568C26922F073020C68224323F400731D
:1035EC008C6843EA04230F4CA04209D00D4CA04236
:1035FC000ED04560C2614A68C263036230BC70473A
:10360C0023F40063CC6843EA042323F48063EDE7DE
:10361C0025F440554C6945EA04158C6945EA0415B6
:10362C00E7E700BF002C014030B4036A026A22F4C1
:10363C00805202624468C26922F4E6420D6842EA92
:10364C00052223F400538D6843EA0533074DA84245
:10365C0006D04460C2614A680264036230BC7047A1
:10366C0024F480444D6944EA8514F2E7002C0140AF
:10367C0010B4036A046A24F001040462846924F01F
:10368C00F00C4CEA021223F00A030B438261036232
:10369C0010BC704710B4036A046A24F0100404626E
:1036AC00846924F4704C4CEA023223F0A00343EA00
:1036BC0001138261036210BC7047836823F07003AE
:1036CC000B4343F00703836070477047704700005B
:1036DC0003681B4A90420AD0B0F1804F07D0A2F584
:1036EC009432904203D002F58062904203D123F0D1
:1036FC0070034A681343124A90420AD0B0F1804FCB
:10370C0007D0A2F59432904203D002F58062904229
:10371C0003D123F44073CA68134323F080034A692E
:10372C00134303608B68C3620B688362044B98423B
:10373C0002D00123436170470B690363F9E700BFB3
:10374C00002C014040B310B5044690F83D30F3B165
:10375C00022384F83D30214651F8040BFFF7B8FFE3
:10376C00012384F8463084F83E3084F83F3084F8E6
:10377C00403084F8413084F8423084F8433084F887
:10378C00443084F8453084F83D30002010BD80F87A
:10379C003C30FEF7B3FADBE70120704740B310B5BD
:1037AC00044690F83D30F3B1022384F83D302146B5
:1037BC0051F8040BFFF78CFF012384F8463084F892
:1037CC003E3084F83F3084F8403084F8413084F83F
:1037DC00423084F8433084F8443084F8453084F81F
:1037EC003D30002010BD80F83C30FFF76EFFDBE76A
:1037FC000120704750B338B50D46044690F83D3063
:10380C00FBB1022384F83D30214651F8040BFFF73D
:10381C005FFF2268136823F008031360236819689C
:10382C000D431D60012384F8463084F83E3084F843
:10383C003F3084F8423084F8433084F83D30002027
:10384C0038BD80F83C30FFF741FFDAE701207047C4
:10385C0030B4036A026A22F0100202624468826980
:10386C0022F4E6420D6842EA052223F020038D681B
:10387C0043EA05130E4DA84209D00D4DA8420ED0B7
:10388C00446082614A688263036230BC704723F0F3
:10389C008003CD6843EA051323F04003EDE724F4DD
:1038AC0040644D6944EA85048D6944EA8504E7E780
:1038BC00002C014038B590F83C30012B66D0044602
:1038CC000D46012380F83C300C2A5AD8DFE802F070
:1038DC00075959591B5959593059595944000068BD
:1038EC00FFF742FE2268936943F008039361226854
:1038FC00936923F0040393612268936929690B434C
:10390C00936100203EE00068FFF7A2FF22689369F4
:10391C0043F4006393612268936923F48063936199
:10392C0022689369296943EA01239361002029E005
:10393C000068FFF747FE2268D36943F00803D361A0
:10394C002268D36923F00403D3612268D3692969FF
:10395C000B43D361002015E00068FFF765FE226879
:10396C00D36943F40063D3612268D36923F4806381
:10397C00D3612268D369296943EA0123D36100200A
:10398C0000E00120002384F83C3038BD0220FCE725
:10399C0010B4846824F47F4C42EA03220A4342EABE
:1039AC000C02826010BC704790F83C30012B78D030
:1039BC0010B50446012380F83C30022380F83D30DA
:1039CC000268936823F47F4323F0770393600B68BA
:1039DC00602B4CD029D8402B54D00CD9502B22D151
:1039EC00CA6849680068FFF743FE50212068FFF75A
:1039FC0064FE002005E0202B0DD009D9302B0AD015
:103A0C000120012384F83D30002384F83C3010BDA4
:103A1C000BB1102B05D119462068FFF74EFE002084
:103A2C00EFE70120EDE70120EBE7B3F5805F34D041
:103A3C00B3F5005F0CD1CB684A6889680068FFF762
:103A4C00A7FF2268936843F4804393600020D8E773
:103A5C00702B24D1CB684A6889680068FFF798FFFF
:103A6C002268936843F0770393600020C9E7CA6823
:103A7C0049680068FFF70EFE60212068FFF71DFE05
:103A8C000020BEE7CA6849680068FFF7F1FD4021D5
:103A9C002068FFF712FE0020B3E70020B1E70120F9
:103AAC00AFE70220704701F01F01012303FA01FC6C
:103ABC00036A23EA0C030362036A02FA01F10B4363
:103ACC000362704710B50446084651BB94F83E306B
:103ADC00DBB2013B18BF0123002B5BD1002839D18D
:103AEC00022384F83E30012201462068FFF7DBFFF9
:103AFC0023682A4A93423DD02368284A93423ED0F9
:103B0C00B3F1804F3BD0A2F59432934237D002F5FB
:103B1C008062934233D01A6842F001021A6000208E
:103B2C0039E0042908D008290DD094F84130DBB2D3
:103B3C00013B18BF0123CFE794F83F30DBB2013BC8
:103B4C0018BF0123C8E794F84030DBB2013B18BF23
:103B5C000123C1E7042805D0082807D0022384F8E4
:103B6C004130C0E7022384F83F30BCE7022384F8DD
:103B7C004030B8E75A6C42F400425A64BCE79A6889
:103B8C0002F00702062A07D01A6842F001021A60F6
:103B9C00002000E0012010BD0020FCE7002C0140BB
:103BAC0010B5044690F83E00C0B294F83F3094F83B
:103BBC00422094F84310012828D1DBB2D2B2C9B20A
:103BCC00012B24D1012A23D1012901D010461EE05A
:103BDC00022384F83E3084F83F3084F8423084F875
:103BEC00433000212068FFF75EFF0122042120688A
:103BFC00FFF759FF2368074A934201D0002006E0E3
:103C0C005A6C42F400425A64002000E0012010BDBE
:103C1C001846FCE7002C014090F83C30012B2CD0CE
:103C2C0010B4012380F83C30022380F83D30036847
:103C3C005A689C6822F0700C0A6842EA0C025A60BE
:103C4C0003680F4A93420AD0B3F1804F07D0A2F514
:103C5C009432934203D002F58062934204D124F053
:103C6C0080044A6814439C60012380F83D30002393
:103C7C0080F83C30184610BC70470220704700BFDB
:103C8C00002C014090F83C30012B22D0012380F80D
:103C9C003C30CB6823F440738A68134323F480636D
:103CAC004A68134323F400630A68134323F48053D4
:103CBC000A69134323F400534A69134323F48043E2
:103CCC00CA69134302685364002380F83C301846D9
:103CDC00704702207047026802F10C0353E8003F62
:103CEC0023F0C0030C3242E800310029F3D1202329
:103CFC0080F841307047026802F10C0353E8003F32
:103D0C0023F490730C3242E800310029F3D102689D
:103D1C0002F1140353E8003F23F00103143242E88C
:103D2C0000310029F3D1036B012B05D0202380F83F
:103D3C004230002303637047026802F10C0353E81E
:103D4C00003F23F010030C3242E800310029F3D17C
:103D5C00ECE790F84130DBB2212B01D00220704708
:103D6C008368B3F5805F17D0036A5A1C02621A7815
:103D7C0003685A60C38C9BB2013B9BB2C3844BB9A2
:103D8C000268D36823F08003D3600268D36843F0E1
:103D9C004003D360002070470369002BE4D1036A11
:103DAC001B880268C3F308035360036A023303627F
:103DBC00E0E7000010B504460268136923F4405391
:103DCC00C1680B43136183680269134342691A4348
:103DDC000168CB6823F4B05323F00C031343CB607E
:103DEC000268536923F4407381690B435361026881
:103DFC00134B9A4220D0FFF70BFB024602EB8202D8
:103E0C0002EB820263689B00B2FBF3F20D48A0FB4D
:103E1C0002314909642303FB11231B013233A0FB3C
:103E2C0003235B0903F0F00202EB011203F00F0312
:103E3C00216813448B6010BDFFF7FAFA0246DDE7E8
:103E4C00003801401F85EB512DE9F84305460F461C
:103E5C0016469946DDF820802C68246837EA04035E
:103E6C000CBF4FF0010C4FF0000CB4452DD1B8F144
:103E7C00FF3FF1D0B8F1000F05D0FEF7F1F9A0EB40
:103E8C0009004045E8D92A6802F10C0353E8003FC9
:103E9C0023F4D0730C3242E800310029F3D12A68A4
:103EAC0002F1140353E8003F23F00103143242E8FB
:103EBC0000310029F3D1202385F8413085F84230B8
:103ECC00002385F84030032000E00020BDE8F88393
:103EDC0060B310B5044690F8413013B3242384F832
:103EEC0041302268D36823F40053D3602046FFF797
:103EFC0061FF2268136923F49043136122685369AC
:103F0C0023F02A0353612268D36843F40053D3602F
:103F1C0000206064202384F8413084F842306063D0
:103F2C0010BD80F84030FEF7D3F8D7E7012070477A
:103F3C002DE9F04182B01E4690F84130DBB2202BC7
:103F4C004BD104460D46904600294AD00AB90120AF
:103F5C0044E000234364212380F84130FEF780F9CC
:103F6C000746A4F82480A4F82680A368B3F5805FE4
:103F7C0002D04FF000080FE02369FBB14FF00008AE
:103F8C000AE038F8023B2268C3F308035360E28C62
:103F9C0092B2013A92B2E284E38C9BB28BB100965E
:103FAC003B46002280212046FFF74EFFD8B9002D5A
:103FBC00E7D015F8012B23685A60E8E7A8460025DE
:103FCC00EAE700963B46002240212046FFF73CFFE3
:103FDC0058B9202384F8413000E0022002B0BDE83B
:103FEC00F0810120FAE70320F8E70320F6E7000050
:103FFC0038B590F84130DBB2202B30D10446002983
:10400C002FD00AB9012038BD01628284C2840023FA
:10401C004364212084F84100A06B134D8562A06B92
:10402C00124DC562A06B124D0563A06B43632068F3
:10403C001346021DA06BFEF77AFC23686FF040025A
:10404C001A60226802F1140353E8003F43F0800326
:10405C00143242E800310029F3D10020D3E70220CA
:10406C00D1E70120CFE700BF81400008E9400008FC
:10407C00F740000808B50346406A1B681B6813F03C
:10408C00200F1AD10023C384026802F1140353E8F1
:10409C00003F23F08003143242E800310029F3D1B1
:1040AC00026802F10C0353E8003F43F040030C326A
:1040BC0042E800310029F3D108BDFDF7DFFBFBE737
:1040CC0008B50168CA6822F04002CA60202280F854
:1040DC004120FDF7D3FB002008BD704708B5406AAE
:1040EC00FFF7FBFF08BD7047704710B5446A2368A3
:1040FC005A6994F84130DBB2212B10D023685A69ED
:10410C0002F0400294F84230DBB2222B11D0636CE7
:10411C0043F0100363642046FFF7E6FF10BD02F086
:10412C008002002AEAD00023E3842046FFF7D3FD67
:10413C00E4E7002AEBD00023E3852046FFF7DBFD04
:10414C00E5E708B5406A0023C385C384FFF7CCFFBD
:10415C0008BD704790F84230DBB2222B69D18368DE
:10416C00B3F5805F4FD0826AB3F5805F04D0002B2B
:10417C0056D10369002B53D103685B681370836AB3
:10418C0001338362C38D9BB2013B9BB2C385002B71
:10419C0051D100B583B00268D36823F02003D360FB
:1041AC000268D36823F48073D3600268536923F0E8
:1041BC0001035361202380F8423000234363036BD7
:1041CC00012B33D100230363026802F10C0353E883
:1041DC00003F23F010030C3242E800310029F3D1E8
:1041EC0003681A6812F0100F06D0002201921A68A8
:1041FC0001925B680193019B818DFFF7AAFF002060
:10420C0003B05DF804FB0269002AACD1826A036832
:10421C005B68C3F308031380836A02338362B1E7DC
:10422C0003685B6803F07F031370A8E7FFF75BFF7D
:10423C00E5E70220704700207047000030B583B0DE
:10424C00044602681368D068516913F00F0505D154
:10425C0013F0200F02D010F0200F19D12DB111F056
:10426C00010119D110F4907F16D1216B01297DD059
:10427C0013F0800F03D010F0800F40F0188113F072
:10428C00400F03D010F0400F40F0158103B030BD4B
:10429C002046FFF75FFFF9E713F0010F06D010F48B
:1042AC00807F03D0626C42F00102626413F0040F51
:1042BC0004D019B1626C42F00202626413F0020F76
:1042CC0004D019B1626C42F00402626413F0080F5E
:1042DC0007D010F0200F00D119B1626C42F0080227
:1042EC006264626C002AD1D013F0200F02D010F05F
:1042FC00200F29D123685B6903F04003626C12F034
:10430C00080F00D163B32046FFF7F5FC23685B6907
:10431C0013F0400F20D0226802F1140353E8003F41
:10432C0023F04003143242E800310029F3D1E36B4F
:10433C0073B1634A5A63E06BFEF758FB0028A5D0B3
:10434C00E06B436B9847A1E72046FFF703FFD1E7EB
:10435C002046FFF7C9FE99E72046FFF7C5FE95E713
:10436C002046FFF7C1FE002363648FE713F0100FA4
:10437C003FF47EAF10F0100F3FF47AAF002301939F
:10438C001368019353680193019B536913F0400F19
:10439C0051D0E26B13685B689BB2002B3FF476AF95
:1043AC00A18D99427FF672AFE3859369202B37D0AC
:1043BC00226802F10C0353E8003F23F480730C32A3
:1043CC0042E800310029F3D1226802F1140353E8CA
:1043DC00003F23F00103143242E800310029F3D1ED
:1043EC00226802F1140353E8003F23F04003143217
:1043FC0042E800310029F3D1202384F84230002315
:10440C002363226802F10C0353E8003F23F01003EE
:10441C000C3242E800310029F3D1E06BFEF7C2FA0E
:10442C0002236363A18DE38D9BB2C91A89B2204626
:10443C00FFF78FFE2AE7A18DE38D9BB2C91A89B2D3
:10444C00E38D9BB2002B3FF421AF00293FF41EAF4C
:10445C00226802F10C0353E8003F23F490730C32F2
:10446C0042E800300028F3D1226802F1140353E82B
:10447C00003F23F00103143242E800300028F3D14E
:10448C00202384F8423000232363226802F10C03BA
:10449C0053E8003F23F010030C3242E800300028B0
:1044AC00F3D1022363632046FFF753FEEEE620466A
:1044BC00FFF74FFCEAE62046FFF702FEE6E600BFF8
:1044CC004F410008014B1868704700BF0C000020DA
:1044DC0070B50D4E0D4D761BB61006D0002455F858
:1044EC00043B01349847A642F9D1094E094D00F01E
:1044FC004BF9761BB61006D0002455F8043B01345A
:10450C009847A642F9D170BDDC5F0008DC5F00085B
:10451C00E45F0008DC5F0008830730B548D0541E08
:10452C00002A3FD00346CAB201E0013C3AD303F85B
:10453C00012B9D07F9D1032C2DD9CDB245EA0525C8
:10454C000F2C45EA054536D9A4F1100222F00F0CC8
:10455C0003F1200EE6444FEA121C03F1100242E96B
:10456C00045542E9025510327245F8D10CF10102A2
:10457C0014F00C0F03EB021204F00F0C13D0ACF17F
:10458C00040323F003030433134442F8045B934203
:10459C00FBD10CF003042CB1CAB21C4403F8012B60
:1045AC009C42FBD130BD64461346002CF4D1F9E794
:1045BC0003461446BFE71A46A446E0E7024B13B184
:1045CC00024800F005B8704700000000E9450008FB
:1045DC00002301461A46184600F01AB838B5084BA5
:1045EC00084D5B1B9C1007D0043B1D44013C55F847
:1045FC0004399847002CF9D1BDE8384000F0CAB80E
:10460C00E85F0008E45F0008704700BF704700BF18
:10461C002DE9F047DFF87CA00646DAF80000984652
:10462C000F469146FFF7F0FF1B4B1B68D3F8484130
:10463C0024B365681F2D26DC5EB96B1C0235DAF8D5
:10464C000000636044F82570FFF7E0FF0020BDE830
:10465C00F087012304EB8501C1F88890D4F88821F8
:10466C00AB401A43022EC4F88821C1F80881E4D16A
:10467C00D4F88C211343C4F88C31DEE703F5A6740F
:10468C00C3F84841D5E7DAF80000FFF7BFFF4FF059
:10469C00FF30DCE738040020D85F000838B504464A
:1046AC0000F01AF8214605462046FCF761FC20B9BB
:1046BC0020460021FCF734FC08B9284638BDFFF72A
:1046CC0001FF2122034600211A600846FCF718FB63
:1046DC000546284638BD00BF20F00042B2F1FF4F1E
:1046EC0010B5044634D292B30028034642DB10F0D6
:1046FC00FF4F4FEAE05432D00021A4F17F00E207D3
:10470C004FF0190C4FEA60044FF080720846C3F367
:10471C00160343F4000358BF5B005B0000EB020E72
:10472C009E4504DC0EEB0200A3EB0E031144BCF11E
:10473C00010C4FEA43034FEA5202EFD113B101319E
:10474C0021F00101481000F17C5000EBC45010BD69
:10475C000146FCF721FA2146FCF716F910BD10F4BE
:10476C0000020ED15B001802114602F10102F9D5CC
:10477C00641AC1E70146FCF705F90146FCF7C0FADB
:10478C0010BD4FF0FF31F3E7F8B500BFF8BC08BC23
:10479C009E467047F8B500BFF8BC08BC9E467047F3
:1047AC0000000000000000000000000000000000FD
:1047BC003F400000000000000000300040003000CE
:1047CC004000000009000BC03D000BC03D0009007B
:1047DC0018C024407FE0224031800000180024C023
:1047EC001B000D803240018003801C4027401C8040
:1047FC0007400040100060000000000000000000B6
:10480C000000000000001F802040402000004020DD
:10481C0020401F8000000000090006001F800600D9
:10482C0009000000040004003F80040004000000A4
:10483C0000100060000000000000000004000400F4
:10484C000400040004000000000000400000000010
:10485C0000000000002001C00600380040000000ED
:10486C001F802040204020401F800000000010408E
:10487C003FC000400000000018C0214022402440EE
:10488C001840000010802040244024401B80000071
:10489C0002000D0011003FC0014000003C8024408C
:1048AC0024402440238000001F80244024403440B6
:1048BC00038000003000200027C0380020000000DA
:1048CC001B802440244024401B8000001C0022C07C
:1048DC00224022401F800000000000000840000021
:1048EC000000000000000000046000000000000058
:1048FC00000004000A00110020804040090009005B
:10490C00090009000900000000004040208011004F
:10491C000A000400180020002340240018000000A6
:10492C001F802040274029401F400000004007C046
:10493C0039000F0001C0004020403FC024402440FB
:10494C001B8000001F802040204020403080000051
:10495C0020403FC0204020401F80000020403FC02E
:10496C0024402E4030C0000020403FC024402E0088
:10497C00300000000F0010802040224033800200E5
:10498C0020403FC0040004003FC020402040204095
:10499C003FC02040204000000060202020203FC06D
:1049AC002000200020403FC024400B0030C020409D
:1049BC0020403FC020400040004000C03FC03C00B1
:1049CC0003C03C003FC0000020403FC00C4023000F
:1049DC003FC020001F802040204020401F8000004E
:1049EC0020403FC024402400180000001F802140BC
:1049FC00214020E01FA0000020403FC024402600A2
:104A0C0019C0004018C024402440224031800000CE
:104A1C00300020403FC020403000000020003F808C
:104A2C00004000403F80200020003E0001C00700F5
:104A3C0038002000380007C03C0007C038000000D8
:104A4C00204039C0060039C020400000200038400A
:104A5C0007C0384020000000304021C026403840BC
:104A6C0020C00000000000007FE04020402000003B
:104A7C00000070000C00038000400000000040208B
:104A8C0040207FE0000000000000200040002000DB
:104A9C0000000000001000100010001000100010AA
:104AAC000000000040000000000000000000028038
:104ABC000540054003C0004020003FC004400440B6
:104ACC000380000000000380044004400640000006
:104ADC0000000380044024403FC0004000000380DD
:104AEC000540054003400000000004401FC0244066
:104AFC0024402000000002E0055005500650042020
:104B0C0020403FC00440040003C0004000000440AB
:104B1C0027C000400000000000100010041027E027
:104B2C000000000020403FC00140070004C00440CA
:104B3C00204020403FC000400040000007C004005F
:104B4C0007C0040003C00000044007C00440040078
:104B5C0003C00040000003800440044003800000B8
:104B6C00041007F004500440038000000000038090
:104B7C000440045007F00010044007C00240040039
:104B8C0004000000000006400540054004C0000081
:104B9C00000004001F800440004000000400078057
:104BAC000040044007C000400400070004C001801E
:104BBC0006000400060001C0070001C0060000004A
:104BCC00044006C0010006C0044000000410071099
:104BDC0004E00180060004000000044005C006400B
:104BEC00044000000000000004007BE040200000B6
:104BFC00000000000000FFF000000000000040205A
:104C0C007BE0040000000000400080004000200019
:104C1C002000400000000000000000000000000028
:104C2C00000000000000000000001FCC000C000081
:104C3C000000000000000800300060000800300098
:104C4C0060000000022003FC1E20022003FC1E203A
:104C5C000220000000000E1811043FFF10840C7895
:104C6C00000000000F0010840F3800C00778188473
:104C7C000078000000780F8410C411240E9800E412
:104C8C0000840008080068007000000000000000AC
:104C9C000000000000000000000007E018182004CD
:104CAC0040020000000040022004181807E0000039
:104CBC00000000000240024001800FF00180024021
:104CCC00024000000080008000800FF8008000800F
:104CDC00008000000001000D000E0000000000002C
:104CEC000000000000000080008000800080008038
:104CFC00008000800000000C000C00000000000090
:104D0C000000000000000006001800600180060092
:104D1C0018002000000007F0080810041004080810
:104D2C0007F000000000080408041FFC0004000445
:104D3C000000000000000E0C10141024104411840C
:104D4C000E0C000000000C18100411041104128841
:104D5C000C700000000000E00320042408241FFC59
:104D6C000024000000001F98108411041104108806
:104D7C0010700000000007F0088811041104188856
:104D8C000070000000001C00100010FC13001C0040
:104D9C001000000000000E381144108410841144DF
:104DAC000E38000000000700088C104410440888DE
:104DBC0007F00000000000000000030C030C0000D2
:104DCC0000000000000000000001010600000000CF
:104DDC0000000000000000800140022004100808C0
:104DEC0010040000022002200220022002200220D7
:104DFC0002200000000010040808041002200140EA
:104E0C000080000000000E001200100C106C1080CE
:104E1C000F00000003E00C1813E4142417C4082836
:104E2C0007D000000004003C03C41C40074000E411
:104E3C00001C000410041FFC1104110411040E8842
:104E4C000070000003E00C1810041004100410088B
:104E5C001C10000010041FFC10041004100408089F
:104E6C0007F0000010041FFC1104110417C41004F7
:104E7C000818000010041FFC1104110017C01000CA
:104E8C000800000003E00C181004100410441C78F7
:104E9C000040000010041FFC10840080008010846F
:104EAC001FFC10040000100410041FFC100410045C
:104EBC000000000000030001100110011FFE100093
:104ECC001000000010041FFC110403801464181C53
:104EDC001004000010041FFC100400040004000463
:104EEC00000C000010041FFC1F0000FC1F001FFC26
:104EFC001004000010041FFC0C04030000E0101848
:104F0C001FFC100007F00808100410041004080817
:104F1C0007F0000010041FFC10841080108010801B
:104F2C000F00000007F0081810241024101C080AA9
:104F3C0007F2000010041FFC1104110011C0113005
:104F4C000E0C000400000E1C11041084108410447C
:104F5C001C3800001800100010041FFC1004100076
:104F6C001800000010001FF81004000400041004C6
:104F7C001FF8100010001E0011E0001C00701380C0
:104F8C001C0010001FC0103C00E01F0000E0103C93
:104F9C001FC000001004180C163401C001C01634D8
:104FAC00180C100410001C00130400FC13041C004B
:104FBC00100000000804101C1064108413041C045E
:104FCC00101800000000000000007FFE40024002AC
:104FDC0040020000000030000C0003800060001C48
:104FEC000003000000004002400240027FFE00006F
:104FFC0000000000000000002000400040004000C5
:10500C00200000000001000100010001000100016E
:10501C0000010001000040004000200000000000E2
:10502C0000000000000000980124014401440144E8
:10503C0000FC000410001FFC00880104010400881F
:10504C0000700000000000700088010401040104DD
:10505C0000880000000000700088010401041108A1
:10506C001FFC0004000000F8014401440144014409
:10507C0000C800000000010401040FFC110411041D
:10508C0011001800000000D601290129012901C9CD
:10509C000106000010041FFC008401000100010443
:1050AC0000FC000400000104190419FC00040004B5
:1050BC00000000000000000300010101190119FEAD
:1050CC000000000010041FFC0024004001B4010C7F
:1050DC00010400000000100410041FFC0004000474
:1050EC0000000000010401FC0104010001FC0104AA
:1050FC00010000FC010401FC00840100010001041A
:10510C0000FC0004000000F8010401040104010487
:10511C0000F80000010101FF008501040104008872
:10512C0000700000000000700088010401040105FB
:10513C0001FF00010104010401FC008401040100D1
:10514C0001800000000000CC012401240124012472
:10515C000198000000000100010007F8010401049F
:10516C0000000000010001F8000400040004010824
:10517C0001FC0004010001800170000C00100160B2
:10518C000180010001F0010C003001C00030010C65
:10519C0001F0010000000104018C00740170018C0D
:1051AC0001040000010101810171000E0018016071
:1051BC000180010000000184010C013401440184D0
:1051CC00010C0000000000000000000001003EFC8B
:1051DC00400240020000000000000000FFFF000041
:1051EC00000000000000400240023EFC01000000F4
:1051FC0000000000000060008000800040004000C3
:10520C002000200000000000000000000000000052
:10521C000000000000000000000000000000000082
:10522C000000000000000000000000000000000072
:10523C00000000000000000F80380FFE380F80388F
:10524C000000000000000000000000000000000052
:10525C0000000100000600000C00003800003100C6
:10526C00000600000C0000380000300000000000B8
:10527C000000000061800067F807F9800061800081
:10528C0061800061800061800067F807F98000612F
:10529C008000000000000000000001C0E003E0F00E
:1052AC000630080418081FFFFE040E080787F003D9
:1052BC0081E000000000000001F000060C00040476
:1052CC0008060C7001F9C0000E00003BE000EC1861
:1052DC00070808040C180003E00000000001E000BF
:1052EC0007F003F818041C0804170807E1D003C0E2
:1052FC00E00023B0003C0800200800001000000073
:10530C000000000100003100003200001C00000011
:10531C000000000000000000000000000000000081
:10532C000000000000000000000000000000000071
:10533C00000000007F0001FFC00780F00C00181077
:10534C0000042000020000000000002000021000F9
:10535C00040C00180780F001FFC0007F0000000063
:10536C000000000000000000000000000000000031
:10537C004200006600006600003C0000180003FFBD
:10538C00C0001800003C00006600006600004200EF
:10539C0000000000080000080000080000080000E1
:1053AC00080001FFC0000800000800000800000809
:1053BC000000080000000000000100003100003275
:1053CC0000001C00000000000000000000000000B5
:1053DC0000000000000000000000000008000008B1
:1053EC000000080000080000080000080000080089
:1053FC000008000008000008000000000000000089
:10540C0000000000380000380000380000000000E8
:10541C000000000000000000000000000000000080
:10542C0000000000000600001C000070000180005D
:10543C000E0000380000C0000700001C0000300007
:10544C0000000000000000007F8001FFE00380707E
:10545C0006001804000804000806001803807001F8
:10546C00FFE0007F80000000000000000000010051
:10547C000801000801000803FFF807FFF800000806
:10548C0000000800000800000000000000000001FF
:10549C00C03802C05804009804011804021804040F
:1054AC0018061C1803F81801E0F8000000000000B2
:1054BC0000000001C0E003C0F00400080408080468
:1054CC00080806180803F41801E7F00001E00000D2
:1054DC0000000000000000000300000D000011009F
:1054EC0000610000810803010807FFF80FFFF800B6
:1054FC0001080001080000000000000000E007FCAB
:10550C00D0060808061008061008061008061838F9
:10551C00060FF00607C000000000000000000000AD
:10552C003F8001FFE00384300208180410080410C7
:10553C0008041008071810030FF00007C000000043
:10554C0000000000000003C0000700000600000679
:10555C0000F80607F806180006E000070000060031
:10556C000000000000000001E1E003F7F006341039
:10557C00041808041808040C08040C080616180370
:10558C00F3F001C1E000000000000000F80003FC93
:10559C00300306380402080402080402080404104C
:1055AC000308F001FFC0007F0000000000000000B5
:1055BC0000000000000000000000000070380070C7
:1055CC0038007038000000000000000000000000EF
:1055DC0000000000000000000000000000000000BF
:1055EC00301A00301C000000000000000000000019
:1055FC000000000000000000000000080000140083
:10560C0000220000410000808001004002002004C4
:10561C00001008000800000000000000210000211C
:10562C0000002100002100002100002100002100C9
:10563C0000210000210000210000000000000000FB
:10564C000000080008040010020020010040008047
:10565C00800041000022000014000008000000003F
:10566C0000000003C00004C000040000080038085B
:10567C000F380808380810000C300007E00003C091
:10568C0000000000000000003F8000FFE00380707D
:10569C00020F1006708804C088048308047F8802F7
:1056AC00C09003012000FE4000000800001800011B
:1056BC00F8003E0801C20007020007E20000FE00ED
:1056CC00001FC80001F8000038000008040008079B
:1056DC00FFF807FFF8040808040808040808040881
:1056EC000806180803F41801E7F00001E0000000B8
:1056FC00000000003F8001FFE003807002001804EE
:10570C0000080400080400080400100600200780AC
:10571C00C000000004000807FFF807FFF8040008A9
:10572C000400080400080400180200100380700133
:10573C00FFE0007F8000000004000807FFF807FF6F
:10574C00F8040808040808040808040808043E08BB
:10575C00040008060018010060000000040008079F
:10576C00FFF807FFF8040808040800040800040800
:10577C0000043E000600000600000180000000004E
:10578C00000000003F8001FFE00380700600180459
:10579C0000080402080402080203F00783F0000268
:1057AC000000020004000807FFF807FFF8040808CF
:1057BC0000080000080000080000080004080807A2
:1057CC00FFF807FFF80400080000000000000400C8
:1057DC000804000804000807FFF807FFF804000895
:1057EC000400080400080000000000000000000095
:1057FC000006000007000001040001040001040081
:10580C000307FFFE07FFFC04000004000004000077
:10581C0004000807FFF807FFF8040C080018000044
:10582C003E0004C7800503C80600F80400380400D5
:10583C001800000804000807FFF807FFF804000828
:10584C000000080000080000080000080000080024
:10585C00001800006000000004000807FFF8078033
:10586C000807FC00007FC00003F80007C0007800A8
:10587C0007800807FFF807FFF80400080400080772
:10588C00FFF807000803C00000E000003800001E0D
:10589C00000007000001C00400F007FFF80400003E
:1058AC00000000007F8001FFE003807006001804F8
:1058BC00000804000806001803003001FFE0007F18
:1058CC008000000004000807FFF807FFF804040834
:1058DC00040400040400040400040400060C000387
:1058EC00F80001F000000000000000007F8001FFC4
:1058FC00E00380700600880400880400C806003CA1
:10590C0003003E01FFE6007F84000000040008074E
:10591C00FFF807FFF8040808040800040C00040F43
:10592C0000040BC00610F003F03801E0080000087A
:10593C0000000001E0F803F03006301004180804F1
:10594C001808040C08040C080206180207F007815A
:10595C00E0000000018000060000040000040000CC
:10596C0004000807FFF807FFF8040008040000040F
:10597C00000006000001800004000007FFE007FFA4
:10598C00F0040018000008000008000008000008DF
:10599C0000000804001007FFE004000004000006EB
:1059AC00000007E00007FE00041FE00001F8000003
:1059BC00380001E0043E0007C000060000040000AF
:1059CC0004000007E00007FFC0041FF80007C00731
:1059DC00F80007FF80043FF80007C004F800070038
:1059EC000004000000000004000806001807C0783E
:1059FC0005F1C8003E00001F800463E80780F8062C
:105A0C0000180400080000000400000600000780D5
:105A1C000007E008047C08001FF80007F8001808CD
:105A2C0004E008070000060000040000000000016C
:105A3C0000080600380400F80403E8040F08047C8E
:105A4C000805F00807C008070018040060000000F3
:105A5C000000000000000000000000000000003FFB
:105A6C00FFFE200002200002200002200002200085
:105A7C000200000000000000000008000007000009
:105A8C0000C0000038000006000001C0000030001B
:105A9C00000E0000010000000000000000002000CB
:105AAC00022000022000022000022000023FFFFE24
:105ABC0000000000000000000000000000000000DA
:105ACC000000000000080000100000300000200062
